{
  "contractName": "BOKCoin",
  "abi": [
    {
      "inputs": [
        {
          "internalType": "uint256",
          "name": "_initialSupply",
          "type": "uint256"
        }
      ],
      "payable": false,
      "stateMutability": "nonpayable",
      "type": "constructor"
    },
    {
      "anonymous": false,
      "inputs": [
        {
          "indexed": true,
          "internalType": "address",
          "name": "_owner",
          "type": "address"
        },
        {
          "indexed": true,
          "internalType": "address",
          "name": "_spender",
          "type": "address"
        },
        {
          "indexed": false,
          "internalType": "uint256",
          "name": "_value",
          "type": "uint256"
        }
      ],
      "name": "Approval",
      "type": "event"
    },
    {
      "anonymous": false,
      "inputs": [
        {
          "indexed": true,
          "internalType": "address",
          "name": "_from",
          "type": "address"
        },
        {
          "indexed": true,
          "internalType": "address",
          "name": "_to",
          "type": "address"
        },
        {
          "indexed": false,
          "internalType": "uint256",
          "name": "_value",
          "type": "uint256"
        }
      ],
      "name": "Transfer",
      "type": "event"
    },
    {
      "anonymous": false,
      "inputs": [
        {
          "indexed": true,
          "internalType": "address",
          "name": "_userAddress",
          "type": "address"
        },
        {
          "indexed": true,
          "internalType": "address",
          "name": "_creatorAddress",
          "type": "address"
        },
        {
          "indexed": false,
          "internalType": "string",
          "name": "_name",
          "type": "string"
        },
        {
          "indexed": false,
          "internalType": "string",
          "name": "_iddata",
          "type": "string"
        },
        {
          "indexed": false,
          "internalType": "uint256",
          "name": "_idnum",
          "type": "uint256"
        }
      ],
      "name": "UserAccountCreated",
      "type": "event"
    },
    {
      "constant": true,
      "inputs": [
        {
          "internalType": "address",
          "name": "",
          "type": "address"
        }
      ],
      "name": "accountDetailsByAddr",
      "outputs": [
        {
          "internalType": "address",
          "name": "userAddress",
          "type": "address"
        },
        {
          "internalType": "address",
          "name": "creatorAddress",
          "type": "address"
        },
        {
          "internalType": "string",
          "name": "name",
          "type": "string"
        },
        {
          "internalType": "string",
          "name": "iddata",
          "type": "string"
        },
        {
          "internalType": "uint256",
          "name": "idnum",
          "type": "uint256"
        }
      ],
      "payable": false,
      "stateMutability": "view",
      "type": "function"
    },
    {
      "constant": true,
      "inputs": [
        {
          "internalType": "uint256",
          "name": "",
          "type": "uint256"
        }
      ],
      "name": "accountDetailsById",
      "outputs": [
        {
          "internalType": "address",
          "name": "userAddress",
          "type": "address"
        },
        {
          "internalType": "address",
          "name": "creatorAddress",
          "type": "address"
        },
        {
          "internalType": "string",
          "name": "name",
          "type": "string"
        },
        {
          "internalType": "string",
          "name": "iddata",
          "type": "string"
        },
        {
          "internalType": "uint256",
          "name": "idnum",
          "type": "uint256"
        }
      ],
      "payable": false,
      "stateMutability": "view",
      "type": "function"
    },
    {
      "constant": true,
      "inputs": [
        {
          "internalType": "address",
          "name": "",
          "type": "address"
        },
        {
          "internalType": "address",
          "name": "",
          "type": "address"
        }
      ],
      "name": "allowance",
      "outputs": [
        {
          "internalType": "uint256",
          "name": "",
          "type": "uint256"
        }
      ],
      "payable": false,
      "stateMutability": "view",
      "type": "function"
    },
    {
      "constant": true,
      "inputs": [
        {
          "internalType": "address",
          "name": "",
          "type": "address"
        }
      ],
      "name": "balanceOf",
      "outputs": [
        {
          "internalType": "uint256",
          "name": "",
          "type": "uint256"
        }
      ],
      "payable": false,
      "stateMutability": "view",
      "type": "function"
    },
    {
      "constant": true,
      "inputs": [],
      "name": "bankNum",
      "outputs": [
        {
          "internalType": "uint256",
          "name": "",
          "type": "uint256"
        }
      ],
      "payable": false,
      "stateMutability": "view",
      "type": "function"
    },
    {
      "constant": true,
      "inputs": [
        {
          "internalType": "uint256",
          "name": "",
          "type": "uint256"
        }
      ],
      "name": "banks",
      "outputs": [
        {
          "internalType": "address",
          "name": "",
          "type": "address"
        }
      ],
      "payable": false,
      "stateMutability": "view",
      "type": "function"
    },
    {
      "constant": true,
      "inputs": [],
      "name": "burner",
      "outputs": [
        {
          "internalType": "address",
          "name": "",
          "type": "address"
        }
      ],
      "payable": false,
      "stateMutability": "view",
      "type": "function"
    },
    {
      "constant": true,
      "inputs": [],
      "name": "creator",
      "outputs": [
        {
          "internalType": "address",
          "name": "",
          "type": "address"
        }
      ],
      "payable": false,
      "stateMutability": "view",
      "type": "function"
    },
    {
      "constant": true,
      "inputs": [],
      "name": "depositCount",
      "outputs": [
        {
          "internalType": "uint256",
          "name": "",
          "type": "uint256"
        }
      ],
      "payable": false,
      "stateMutability": "view",
      "type": "function"
    },
    {
      "constant": true,
      "inputs": [
        {
          "internalType": "uint256",
          "name": "",
          "type": "uint256"
        }
      ],
      "name": "deposits",
      "outputs": [
        {
          "internalType": "uint256",
          "name": "id",
          "type": "uint256"
        },
        {
          "internalType": "address payable",
          "name": "depositor",
          "type": "address"
        },
        {
          "internalType": "address payable",
          "name": "provider",
          "type": "address"
        },
        {
          "internalType": "uint256",
          "name": "rate",
          "type": "uint256"
        },
        {
          "internalType": "uint256",
          "name": "timeperiod",
          "type": "uint256"
        },
        {
          "internalType": "uint256",
          "name": "principal",
          "type": "uint256"
        },
        {
          "internalType": "uint256",
          "name": "maxDepositAmt",
          "type": "uint256"
        },
        {
          "internalType": "uint256",
          "name": "endtime",
          "type": "uint256"
        },
        {
          "internalType": "uint256",
          "name": "starttime",
          "type": "uint256"
        },
        {
          "internalType": "uint256",
          "name": "interest",
          "type": "uint256"
        },
        {
          "internalType": "uint256",
          "name": "amt",
          "type": "uint256"
        },
        {
          "internalType": "bool",
          "name": "isAvailable",
          "type": "bool"
        },
        {
          "internalType": "bool",
          "name": "notRedeemed",
          "type": "bool"
        }
      ],
      "payable": false,
      "stateMutability": "view",
      "type": "function"
    },
    {
      "constant": true,
      "inputs": [],
      "name": "name",
      "outputs": [
        {
          "internalType": "string",
          "name": "",
          "type": "string"
        }
      ],
      "payable": false,
      "stateMutability": "view",
      "type": "function"
    },
    {
      "constant": true,
      "inputs": [],
      "name": "standard",
      "outputs": [
        {
          "internalType": "string",
          "name": "",
          "type": "string"
        }
      ],
      "payable": false,
      "stateMutability": "view",
      "type": "function"
    },
    {
      "constant": true,
      "inputs": [],
      "name": "symbol",
      "outputs": [
        {
          "internalType": "string",
          "name": "",
          "type": "string"
        }
      ],
      "payable": false,
      "stateMutability": "view",
      "type": "function"
    },
    {
      "constant": true,
      "inputs": [],
      "name": "totalSupply",
      "outputs": [
        {
          "internalType": "uint256",
          "name": "",
          "type": "uint256"
        }
      ],
      "payable": false,
      "stateMutability": "view",
      "type": "function"
    },
    {
      "constant": true,
      "inputs": [],
      "name": "userAccountsNum",
      "outputs": [
        {
          "internalType": "uint256",
          "name": "",
          "type": "uint256"
        }
      ],
      "payable": false,
      "stateMutability": "view",
      "type": "function"
    },
    {
      "constant": true,
      "inputs": [
        {
          "internalType": "address",
          "name": "",
          "type": "address"
        }
      ],
      "name": "validAddresses",
      "outputs": [
        {
          "internalType": "bool",
          "name": "",
          "type": "bool"
        }
      ],
      "payable": false,
      "stateMutability": "view",
      "type": "function"
    },
    {
      "constant": true,
      "inputs": [
        {
          "internalType": "address",
          "name": "",
          "type": "address"
        }
      ],
      "name": "validBankAddresses",
      "outputs": [
        {
          "internalType": "bool",
          "name": "",
          "type": "bool"
        }
      ],
      "payable": false,
      "stateMutability": "view",
      "type": "function"
    },
    {
      "constant": false,
      "inputs": [
        {
          "internalType": "address",
          "name": "_bankAddr",
          "type": "address"
        }
      ],
      "name": "addBank",
      "outputs": [
        {
          "internalType": "bool",
          "name": "success",
          "type": "bool"
        }
      ],
      "payable": false,
      "stateMutability": "nonpayable",
      "type": "function"
    },
    {
      "constant": false,
      "inputs": [
        {
          "internalType": "address",
          "name": "_userAddress",
          "type": "address"
        },
        {
          "internalType": "string",
          "name": "_name",
          "type": "string"
        },
        {
          "internalType": "string",
          "name": "_iddata",
          "type": "string"
        }
      ],
      "name": "addUserAddressInfo",
      "outputs": [
        {
          "internalType": "bool",
          "name": "success",
          "type": "bool"
        }
      ],
      "payable": false,
      "stateMutability": "nonpayable",
      "type": "function"
    },
    {
      "constant": false,
      "inputs": [
        {
          "internalType": "address",
          "name": "_addr",
          "type": "address"
        }
      ],
      "name": "setValidAddress",
      "outputs": [
        {
          "internalType": "bool",
          "name": "success",
          "type": "bool"
        }
      ],
      "payable": false,
      "stateMutability": "nonpayable",
      "type": "function"
    },
    {
      "constant": false,
      "inputs": [
        {
          "internalType": "address",
          "name": "_addr",
          "type": "address"
        }
      ],
      "name": "invalidateUserAddress",
      "outputs": [
        {
          "internalType": "bool",
          "name": "success",
          "type": "bool"
        }
      ],
      "payable": false,
      "stateMutability": "nonpayable",
      "type": "function"
    },
    {
      "constant": false,
      "inputs": [
        {
          "internalType": "address",
          "name": "_bankAddr",
          "type": "address"
        }
      ],
      "name": "invalidateBankAddress",
      "outputs": [
        {
          "internalType": "bool",
          "name": "success",
          "type": "bool"
        }
      ],
      "payable": false,
      "stateMutability": "nonpayable",
      "type": "function"
    },
    {
      "constant": false,
      "inputs": [
        {
          "internalType": "address",
          "name": "_to",
          "type": "address"
        },
        {
          "internalType": "uint256",
          "name": "_value",
          "type": "uint256"
        }
      ],
      "name": "transfer",
      "outputs": [
        {
          "internalType": "bool",
          "name": "success",
          "type": "bool"
        }
      ],
      "payable": false,
      "stateMutability": "nonpayable",
      "type": "function"
    },
    {
      "constant": false,
      "inputs": [
        {
          "internalType": "address",
          "name": "_spender",
          "type": "address"
        },
        {
          "internalType": "uint256",
          "name": "_value",
          "type": "uint256"
        }
      ],
      "name": "approve",
      "outputs": [
        {
          "internalType": "bool",
          "name": "success",
          "type": "bool"
        }
      ],
      "payable": false,
      "stateMutability": "nonpayable",
      "type": "function"
    },
    {
      "constant": false,
      "inputs": [
        {
          "internalType": "uint256",
          "name": "_quantity",
          "type": "uint256"
        }
      ],
      "name": "addTokens",
      "outputs": [
        {
          "internalType": "bool",
          "name": "success",
          "type": "bool"
        }
      ],
      "payable": false,
      "stateMutability": "nonpayable",
      "type": "function"
    },
    {
      "constant": false,
      "inputs": [
        {
          "internalType": "uint256",
          "name": "_quantity",
          "type": "uint256"
        }
      ],
      "name": "burnTokens",
      "outputs": [
        {
          "internalType": "bool",
          "name": "success",
          "type": "bool"
        }
      ],
      "payable": false,
      "stateMutability": "nonpayable",
      "type": "function"
    },
    {
      "constant": false,
      "inputs": [
        {
          "internalType": "address",
          "name": "_from",
          "type": "address"
        },
        {
          "internalType": "address",
          "name": "_to",
          "type": "address"
        },
        {
          "internalType": "uint256",
          "name": "_value",
          "type": "uint256"
        }
      ],
      "name": "transferFrom",
      "outputs": [
        {
          "internalType": "bool",
          "name": "success",
          "type": "bool"
        }
      ],
      "payable": false,
      "stateMutability": "nonpayable",
      "type": "function"
    },
    {
      "constant": false,
      "inputs": [
        {
          "internalType": "uint256",
          "name": "_rate",
          "type": "uint256"
        },
        {
          "internalType": "uint256",
          "name": "_timeperiod",
          "type": "uint256"
        },
        {
          "internalType": "uint256",
          "name": "_maxDepositAmt",
          "type": "uint256"
        }
      ],
      "name": "offerDeposit",
      "outputs": [
        {
          "internalType": "bool",
          "name": "success",
          "type": "bool"
        }
      ],
      "payable": false,
      "stateMutability": "nonpayable",
      "type": "function"
    },
    {
      "constant": false,
      "inputs": [
        {
          "internalType": "uint256",
          "name": "_id",
          "type": "uint256"
        },
        {
          "internalType": "uint256",
          "name": "_principal",
          "type": "uint256"
        }
      ],
      "name": "makeDeposit",
      "outputs": [
        {
          "internalType": "bool",
          "name": "success",
          "type": "bool"
        }
      ],
      "payable": true,
      "stateMutability": "payable",
      "type": "function"
    },
    {
      "constant": false,
      "inputs": [
        {
          "internalType": "uint256",
          "name": "_id",
          "type": "uint256"
        }
      ],
      "name": "receiveBack",
      "outputs": [
        {
          "internalType": "bool",
          "name": "success",
          "type": "bool"
        }
      ],
      "payable": true,
      "stateMutability": "payable",
      "type": "function"
    }
  ],
  "bytecode": "0x60806040526040518060400160405280600781526020017f424f4b436f696e00000000000000000000000000000000000000000000000000815250600090805190602001906200005192919062000315565b506040518060400160405280600381526020017f424f4b0000000000000000000000000000000000000000000000000000000000815250600190805190602001906200009f92919062000315565b506040518060400160405280600581526020017f455243323000000000000000000000000000000000000000000000000000000081525060029080519060200190620000ed92919062000315565b5060006005556000600655600060075560006008553480156200010f57600080fd5b5060405162003ca938038062003ca9833981810160405260208110156200013557600080fd5b81019080805190602001909291905050508060056000828254019250508190555033600460006101000a81548173ffffffffffffffffffffffffffffffffffffffff021916908373ffffffffffffffffffffffffffffffffffffffff1602179055506000600360006101000a81548173ffffffffffffffffffffffffffffffffffffffff021916908373ffffffffffffffffffffffffffffffffffffffff160217905550600554600f60003373ffffffffffffffffffffffffffffffffffffffff1673ffffffffffffffffffffffffffffffffffffffff168152602001908152602001600020819055506001600d60003373ffffffffffffffffffffffffffffffffffffffff1673ffffffffffffffffffffffffffffffffffffffff16815260200190815260200160002060006101000a81548160ff021916908315150217905550620002aa600460009054906101000a900473ffffffffffffffffffffffffffffffffffffffff16620002b260201b60201c565b5050620003c4565b60006001600c60008473ffffffffffffffffffffffffffffffffffffffff1673ffffffffffffffffffffffffffffffffffffffff16815260200190815260200160002060006101000a81548160ff02191690831515021790555060019050919050565b828054600181600116156101000203166002900490600052602060002090601f016020900481019282601f106200035857805160ff191683800117855562000389565b8280016001018555821562000389579182015b82811115620003885782518255916020019190600101906200036b565b5b5090506200039891906200039c565b5090565b620003c191905b80821115620003bd576000816000905550600101620003a3565b5090565b90565b6138d580620003d46000396000f3fe6080604052600436106101cc5760003560e01c80637e24d1eb116100f7578063b881ab5d11610095578063dd62ed3e11610064578063dd62ed3e14611001578063de8f641f14611086578063df4dd219146110cc578063f3821da314611135576101cc565b8063b881ab5d14610d39578063b91e408714610edc578063c6ed899014610f45578063d904038014610f98576101cc565b8063a5ccd404116100d1578063a5ccd40414610af1578063a9059cbb14610b5a578063b02c43d014610bcd578063b8661a3c14610cd0576101cc565b80637e24d1eb146109cd57806394722397146109f857806395d89b4114610a61576101cc565b806329397d9e1161016f5780635b0d49461161013e5780635b0d4946146105f15780636d1b229d1461078857806370a08231146107db5780637369086214610840576101cc565b806329397d9e146104bb5780632dfdf0b5146104e65780633f0f4076146105115780635a3b7e4214610561576101cc565b8063095ea7b3116101ab578063095ea7b31461033357806318160ddd146103a657806323b872dd146103d157806327810b6e14610464576101cc565b806285ae2b146101d157806302d05d3f1461024c57806306fdde03146102a3575b600080fd5b3480156101dd57600080fd5b5061020a600480360360208110156101f457600080fd5b810190808035906020019092919050505061119c565b604051808273ffffffffffffffffffffffffffffffffffffffff1673ffffffffffffffffffffffffffffffffffffffff16815260200191505060405180910390f35b34801561025857600080fd5b506102616111d8565b604051808273ffffffffffffffffffffffffffffffffffffffff1673ffffffffffffffffffffffffffffffffffffffff16815260200191505060405180910390f35b3480156102af57600080fd5b506102b86111fe565b6040518080602001828103825283818151815260200191508051906020019080838360005b838110156102f85780820151818401526020810190506102dd565b50505050905090810190601f1680156103255780820380516001836020036101000a031916815260200191505b509250505060405180910390f35b34801561033f57600080fd5b5061038c6004803603604081101561035657600080fd5b81019080803573ffffffffffffffffffffffffffffffffffffffff1690602001909291908035906020019092919050505061129c565b604051808215151515815260200191505060405180910390f35b3480156103b257600080fd5b506103bb61138e565b6040518082815260200191505060405180910390f35b3480156103dd57600080fd5b5061044a600480360360608110156103f457600080fd5b81019080803573ffffffffffffffffffffffffffffffffffffffff169060200190929190803573ffffffffffffffffffffffffffffffffffffffff16906020019092919080359060200190929190505050611394565b604051808215151515815260200191505060405180910390f35b34801561047057600080fd5b506104796115ff565b604051808273ffffffffffffffffffffffffffffffffffffffff1673ffffffffffffffffffffffffffffffffffffffff16815260200191505060405180910390f35b3480156104c757600080fd5b506104d0611625565b6040518082815260200191505060405180910390f35b3480156104f257600080fd5b506104fb61162b565b6040518082815260200191505060405180910390f35b6105476004803603604081101561052757600080fd5b810190808035906020019092919080359060200190929190505050611631565b604051808215151515815260200191505060405180910390f35b34801561056d57600080fd5b50610576611b4a565b6040518080602001828103825283818151815260200191508051906020019080838360005b838110156105b657808201518184015260208101905061059b565b50505050905090810190601f1680156105e35780820380516001836020036101000a031916815260200191505b509250505060405180910390f35b3480156105fd57600080fd5b5061076e6004803603606081101561061457600080fd5b81019080803573ffffffffffffffffffffffffffffffffffffffff1690602001909291908035906020019064010000000081111561065157600080fd5b82018360208201111561066357600080fd5b8035906020019184600183028401116401000000008311171561068557600080fd5b91908080601f016020809104026020016040519081016040528093929190818152602001838380828437600081840152601f19601f820116905080830192505050505050509192919290803590602001906401000000008111156106e857600080fd5b8201836020820111156106fa57600080fd5b8035906020019184600183028401116401000000008311171561071c57600080fd5b91908080601f016020809104026020016040519081016040528093929190818152602001838380828437600081840152601f19601f820116905080830192505050505050509192919290505050611be8565b604051808215151515815260200191505060405180910390f35b34801561079457600080fd5b506107c1600480360360208110156107ab57600080fd5b8101908080359060200190929190505050611f3a565b604051808215151515815260200191505060405180910390f35b3480156107e757600080fd5b5061082a600480360360208110156107fe57600080fd5b81019080803573ffffffffffffffffffffffffffffffffffffffff169060200190929190505050611f82565b6040518082815260200191505060405180910390f35b34801561084c57600080fd5b506108796004803603602081101561086357600080fd5b8101908080359060200190929190505050611f9a565b604051808673ffffffffffffffffffffffffffffffffffffffff1673ffffffffffffffffffffffffffffffffffffffff1681526020018573ffffffffffffffffffffffffffffffffffffffff1673ffffffffffffffffffffffffffffffffffffffff1681526020018060200180602001848152602001838103835286818151815260200191508051906020019080838360005b8381101561092757808201518184015260208101905061090c565b50505050905090810190601f1680156109545780820380516001836020036101000a031916815260200191505b50838103825285818151815260200191508051906020019080838360005b8381101561098d578082015181840152602081019050610972565b50505050905090810190601f1680156109ba5780820380516001836020036101000a031916815260200191505b5097505050505050505060405180910390f35b3480156109d957600080fd5b506109e2612140565b6040518082815260200191505060405180910390f35b348015610a0457600080fd5b50610a4760048036036020811015610a1b57600080fd5b81019080803573ffffffffffffffffffffffffffffffffffffffff169060200190929190505050612146565b604051808215151515815260200191505060405180910390f35b348015610a6d57600080fd5b50610a766122d1565b6040518080602001828103825283818151815260200191508051906020019080838360005b83811015610ab6578082015181840152602081019050610a9b565b50505050905090810190601f168015610ae35780820380516001836020036101000a031916815260200191505b509250505060405180910390f35b348015610afd57600080fd5b50610b4060048036036020811015610b1457600080fd5b81019080803573ffffffffffffffffffffffffffffffffffffffff16906020019092919050505061236f565b604051808215151515815260200191505060405180910390f35b348015610b6657600080fd5b50610bb360048036036040811015610b7d57600080fd5b81019080803573ffffffffffffffffffffffffffffffffffffffff16906020019092919080359060200190929190505050612478565b604051808215151515815260200191505060405180910390f35b348015610bd957600080fd5b50610c0660048036036020811015610bf057600080fd5b81019080803590602001909291905050506126c4565b604051808e81526020018d73ffffffffffffffffffffffffffffffffffffffff1673ffffffffffffffffffffffffffffffffffffffff1681526020018c73ffffffffffffffffffffffffffffffffffffffff1673ffffffffffffffffffffffffffffffffffffffff1681526020018b81526020018a815260200189815260200188815260200187815260200186815260200185815260200184815260200183151515158152602001821515151581526020019d505050505050505050505050505060405180910390f35b348015610cdc57600080fd5b50610d1f60048036036020811015610cf357600080fd5b81019080803573ffffffffffffffffffffffffffffffffffffffff169060200190929190505050612784565b604051808215151515815260200191505060405180910390f35b348015610d4557600080fd5b50610d8860048036036020811015610d5c57600080fd5b81019080803573ffffffffffffffffffffffffffffffffffffffff1690602001909291905050506127e7565b604051808673ffffffffffffffffffffffffffffffffffffffff1673ffffffffffffffffffffffffffffffffffffffff1681526020018573ffffffffffffffffffffffffffffffffffffffff1673ffffffffffffffffffffffffffffffffffffffff1681526020018060200180602001848152602001838103835286818151815260200191508051906020019080838360005b83811015610e36578082015181840152602081019050610e1b565b50505050905090810190601f168015610e635780820380516001836020036101000a031916815260200191505b50838103825285818151815260200191508051906020019080838360005b83811015610e9c578082015181840152602081019050610e81565b50505050905090810190601f168015610ec95780820380516001836020036101000a031916815260200191505b5097505050505050505060405180910390f35b348015610ee857600080fd5b50610f2b60048036036020811015610eff57600080fd5b81019080803573ffffffffffffffffffffffffffffffffffffffff16906020019092919050505061298d565b604051808215151515815260200191505060405180910390f35b348015610f5157600080fd5b50610f7e60048036036020811015610f6857600080fd5b81019080803590602001909291905050506129ad565b604051808215151515815260200191505060405180910390f35b348015610fa457600080fd5b50610fe760048036036020811015610fbb57600080fd5b81019080803573ffffffffffffffffffffffffffffffffffffffff169060200190929190505050612add565b604051808215151515815260200191505060405180910390f35b34801561100d57600080fd5b506110706004803603604081101561102457600080fd5b81019080803573ffffffffffffffffffffffffffffffffffffffff169060200190929190803573ffffffffffffffffffffffffffffffffffffffff169060200190929190505050612afd565b6040518082815260200191505060405180910390f35b6110b26004803603602081101561109c57600080fd5b8101908080359060200190929190505050612b22565b604051808215151515815260200191505060405180910390f35b3480156110d857600080fd5b5061111b600480360360208110156110ef57600080fd5b81019080803573ffffffffffffffffffffffffffffffffffffffff169060200190929190505050612e14565b604051808215151515815260200191505060405180910390f35b34801561114157600080fd5b506111826004803603606081101561115857600080fd5b81019080803590602001909291908035906020019092919080359060200190929190505050612f20565b604051808215151515815260200191505060405180910390f35b600981815481106111a957fe5b906000526020600020016000915054906101000a900473ffffffffffffffffffffffffffffffffffffffff1681565b600460009054906101000a900473ffffffffffffffffffffffffffffffffffffffff1681565b60008054600181600116156101000203166002900480601f0160208091040260200160405190810160405280929190818152602001828054600181600116156101000203166002900480156112945780601f1061126957610100808354040283529160200191611294565b820191906000526020600020905b81548152906001019060200180831161127757829003601f168201915b505050505081565b600081601060003373ffffffffffffffffffffffffffffffffffffffff1673ffffffffffffffffffffffffffffffffffffffff16815260200190815260200160002060008573ffffffffffffffffffffffffffffffffffffffff1673ffffffffffffffffffffffffffffffffffffffff168152602001908152602001600020819055508273ffffffffffffffffffffffffffffffffffffffff163373ffffffffffffffffffffffffffffffffffffffff167f8c5be1e5ebec7d5bd14f71427d1e84f3dd0314c0f7b2291e5b200ac8c7c3b925846040518082815260200191505060405180910390a36001905092915050565b60055481565b600081600f60008673ffffffffffffffffffffffffffffffffffffffff1673ffffffffffffffffffffffffffffffffffffffff1681526020019081526020016000205410156113e257600080fd5b601060008573ffffffffffffffffffffffffffffffffffffffff1673ffffffffffffffffffffffffffffffffffffffff16815260200190815260200160002060003373ffffffffffffffffffffffffffffffffffffffff1673ffffffffffffffffffffffffffffffffffffffff1681526020019081526020016000205482111561146b57600080fd5b81600f60008673ffffffffffffffffffffffffffffffffffffffff1673ffffffffffffffffffffffffffffffffffffffff1681526020019081526020016000206000828254039250508190555081600f60008573ffffffffffffffffffffffffffffffffffffffff1673ffffffffffffffffffffffffffffffffffffffff1681526020019081526020016000206000828254019250508190555081601060008673ffffffffffffffffffffffffffffffffffffffff1673ffffffffffffffffffffffffffffffffffffffff16815260200190815260200160002060003373ffffffffffffffffffffffffffffffffffffffff1673ffffffffffffffffffffffffffffffffffffffff168152602001908152602001600020600082825403925050819055508273ffffffffffffffffffffffffffffffffffffffff168473ffffffffffffffffffffffffffffffffffffffff167fddf252ad1be2c89b69c2b068fc378daa952ba7f163c4a11628f55a4df523b3ef846040518082815260200191505060405180910390a3600190509392505050565b600360009054906101000a900473ffffffffffffffffffffffffffffffffffffffff1681565b60065481565b60085481565b600060011515600c60003373ffffffffffffffffffffffffffffffffffffffff1673ffffffffffffffffffffffffffffffffffffffff16815260200190815260200160002060009054906101000a900460ff161515146116dc576040517f08c379a00000000000000000000000000000000000000000000000000000000081526004018080602001828103825260268152602001806136ce6026913960400191505060405180910390fd5b81600f60003373ffffffffffffffffffffffffffffffffffffffff1673ffffffffffffffffffffffffffffffffffffffff168152602001908152602001600020541015611774576040517f08c379a00000000000000000000000000000000000000000000000000000000081526004018080602001828103825260368152602001806137386036913960400191505060405180910390fd5b600e6000848152602001908152602001600020600601548211156117e3576040517f08c379a000000000000000000000000000000000000000000000000000000000815260040180806020018281038252603281526020018061369c6032913960400191505060405180910390fd5b60011515600e6000858152602001908152602001600020600b0160009054906101000a900460ff16151514611863576040517f08c379a000000000000000000000000000000000000000000000000000000000815260040180806020018281038252602b81526020018061376e602b913960400191505060405180910390fd5b33600e600085815260200190815260200160002060010160006101000a81548173ffffffffffffffffffffffffffffffffffffffff021916908373ffffffffffffffffffffffffffffffffffffffff16021790555081600e60008581526020019081526020016000206005018190555042600e600085815260200190815260200160002060080181905550603c600e60008581526020019081526020016000206004015402600e60008581526020019081526020016000206008015401600e6000858152602001908152602001600020600701819055506001600e6000858152602001908152602001600020600b0160016101000a81548160ff0219169083151502179055506000600e6000858152602001908152602001600020600b0160006101000a81548160ff0219169083151502179055506000600e600085815260200190815260200160002060020160009054906101000a900473ffffffffffffffffffffffffffffffffffffffff16905082600f60003373ffffffffffffffffffffffffffffffffffffffff1673ffffffffffffffffffffffffffffffffffffffff1681526020019081526020016000206000828254039250508190555082600f60008373ffffffffffffffffffffffffffffffffffffffff1673ffffffffffffffffffffffffffffffffffffffff16815260200190815260200160002060008282540192505081905550600080600e60008781526020019081526020016000206003015490506000600e6000888152602001908152602001600020600401549050611ac981611abb848961335990919063ffffffff16565b61335990919063ffffffff16565b9250611adf6064846133df90919063ffffffff16565b600e600089815260200190815260200160002060090181905550611b22600e6000898152602001908152602001600020600901548761342990919063ffffffff16565b600e6000898152602001908152602001600020600a0181905550600194505050505092915050565b60028054600181600116156101000203166002900480601f016020809104026020016040519081016040528092919081815260200182805460018160011615610100020316600290048015611be05780601f10611bb557610100808354040283529160200191611be0565b820191906000526020600020905b815481529060010190602001808311611bc357829003601f168201915b505050505081565b600060011515600d60003373ffffffffffffffffffffffffffffffffffffffff1673ffffffffffffffffffffffffffffffffffffffff16815260200190815260200160002060009054906101000a900460ff16151514611c93576040517f08c379a00000000000000000000000000000000000000000000000000000000081526004018080602001828103825260328152602001806138106032913960400191505060405180910390fd5b6006600081548092919060010191905055506040518060a001604052808573ffffffffffffffffffffffffffffffffffffffff1681526020013373ffffffffffffffffffffffffffffffffffffffff168152602001848152602001838152602001600654815250600a6000600654815260200190815260200160002060008201518160000160006101000a81548173ffffffffffffffffffffffffffffffffffffffff021916908373ffffffffffffffffffffffffffffffffffffffff16021790555060208201518160010160006101000a81548173ffffffffffffffffffffffffffffffffffffffff021916908373ffffffffffffffffffffffffffffffffffffffff1602179055506040820151816002019080519060200190611db9929190613577565b506060820151816003019080519060200190611dd6929190613577565b50608082015181600401559050503373ffffffffffffffffffffffffffffffffffffffff168473ffffffffffffffffffffffffffffffffffffffff167f95da2ee7bf5870679d6aec59b7360b2cd943ea903b9024a9a2162c07a42685af8585600654604051808060200180602001848152602001838103835286818151815260200191508051906020019080838360005b83811015611e82578082015181840152602081019050611e67565b50505050905090810190601f168015611eaf5780820380516001836020036101000a031916815260200191505b50838103825285818151815260200191508051906020019080838360005b83811015611ee8578082015181840152602081019050611ecd565b50505050905090810190601f168015611f155780820380516001836020036101000a031916815260200191505b509550505050505060405180910390a3611f2e84612784565b50600190509392505050565b6000611f68600360009054906101000a900473ffffffffffffffffffffffffffffffffffffffff1683612478565b508160056000828254039250508190555060019050919050565b600f6020528060005260406000206000915090505481565b600a6020528060005260406000206000915090508060000160009054906101000a900473ffffffffffffffffffffffffffffffffffffffff16908060010160009054906101000a900473ffffffffffffffffffffffffffffffffffffffff1690806002018054600181600116156101000203166002900480601f0160208091040260200160405190810160405280929190818152602001828054600181600116156101000203166002900480156120925780601f1061206757610100808354040283529160200191612092565b820191906000526020600020905b81548152906001019060200180831161207557829003601f168201915b505050505090806003018054600181600116156101000203166002900480601f0160208091040260200160405190810160405280929190818152602001828054600181600116156101000203166002900480156121305780601f1061210557610100808354040283529160200191612130565b820191906000526020600020905b81548152906001019060200180831161211357829003601f168201915b5050505050908060040154905085565b60075481565b6000600460009054906101000a900473ffffffffffffffffffffffffffffffffffffffff1673ffffffffffffffffffffffffffffffffffffffff163373ffffffffffffffffffffffffffffffffffffffff16146121ee576040517f08c379a00000000000000000000000000000000000000000000000000000000081526004018080602001828103825260268152602001806136766026913960400191505060405180910390fd5b60098290806001815401808255809150509060018203906000526020600020016000909192909190916101000a81548173ffffffffffffffffffffffffffffffffffffffff021916908373ffffffffffffffffffffffffffffffffffffffff160217905550506007600081548092919060010191905055506001600d60008473ffffffffffffffffffffffffffffffffffffffff1673ffffffffffffffffffffffffffffffffffffffff16815260200190815260200160002060006101000a81548160ff0219169083151502179055506122c782612784565b5060019050919050565b60018054600181600116156101000203166002900480601f0160208091040260200160405190810160405280929190818152602001828054600181600116156101000203166002900480156123675780601f1061233c57610100808354040283529160200191612367565b820191906000526020600020905b81548152906001019060200180831161234a57829003601f168201915b505050505081565b6000600460009054906101000a900473ffffffffffffffffffffffffffffffffffffffff1673ffffffffffffffffffffffffffffffffffffffff163373ffffffffffffffffffffffffffffffffffffffff1614612417576040517f08c379a000000000000000000000000000000000000000000000000000000000815260040180806020018281038252603381526020018061361d6033913960400191505060405180910390fd5b6000600d60008473ffffffffffffffffffffffffffffffffffffffff1673ffffffffffffffffffffffffffffffffffffffff16815260200190815260200160002060006101000a81548160ff02191690831515021790555060019050919050565b600081600f60003373ffffffffffffffffffffffffffffffffffffffff1673ffffffffffffffffffffffffffffffffffffffff168152602001908152602001600020541015612512576040517f08c379a00000000000000000000000000000000000000000000000000000000081526004018080602001828103825260268152602001806136506026913960400191505060405180910390fd5b60011515600c60008573ffffffffffffffffffffffffffffffffffffffff1673ffffffffffffffffffffffffffffffffffffffff16815260200190815260200160002060009054906101000a900460ff161515146125bb576040517f08c379a00000000000000000000000000000000000000000000000000000000081526004018080602001828103825260238152602001806137156023913960400191505060405180910390fd5b81600f60003373ffffffffffffffffffffffffffffffffffffffff1673ffffffffffffffffffffffffffffffffffffffff1681526020019081526020016000206000828254039250508190555081600f60008573ffffffffffffffffffffffffffffffffffffffff1673ffffffffffffffffffffffffffffffffffffffff168152602001908152602001600020600082825401925050819055508273ffffffffffffffffffffffffffffffffffffffff163373ffffffffffffffffffffffffffffffffffffffff167fddf252ad1be2c89b69c2b068fc378daa952ba7f163c4a11628f55a4df523b3ef846040518082815260200191505060405180910390a36001905092915050565b600e6020528060005260406000206000915090508060000154908060010160009054906101000a900473ffffffffffffffffffffffffffffffffffffffff16908060020160009054906101000a900473ffffffffffffffffffffffffffffffffffffffff169080600301549080600401549080600501549080600601549080600701549080600801549080600901549080600a01549080600b0160009054906101000a900460ff169080600b0160019054906101000a900460ff1690508d565b60006001600c60008473ffffffffffffffffffffffffffffffffffffffff1673ffffffffffffffffffffffffffffffffffffffff16815260200190815260200160002060006101000a81548160ff02191690831515021790555060019050919050565b600b6020528060005260406000206000915090508060000160009054906101000a900473ffffffffffffffffffffffffffffffffffffffff16908060010160009054906101000a900473ffffffffffffffffffffffffffffffffffffffff1690806002018054600181600116156101000203166002900480601f0160208091040260200160405190810160405280929190818152602001828054600181600116156101000203166002900480156128df5780601f106128b4576101008083540402835291602001916128df565b820191906000526020600020905b8154815290600101906020018083116128c257829003601f168201915b505050505090806003018054600181600116156101000203166002900480601f01602080910402602001604051908101604052809291908181526020018280546001816001161561010002031660029004801561297d5780601f106129525761010080835404028352916020019161297d565b820191906000526020600020905b81548152906001019060200180831161296057829003601f168201915b5050505050908060040154905085565b600c6020528060005260406000206000915054906101000a900460ff1681565b6000600460009054906101000a900473ffffffffffffffffffffffffffffffffffffffff1673ffffffffffffffffffffffffffffffffffffffff163373ffffffffffffffffffffffffffffffffffffffff1614612a55576040517f08c379a00000000000000000000000000000000000000000000000000000000081526004018080602001828103825260268152602001806136766026913960400191505060405180910390fd5b8160056000828254019250508190555081600f6000600460009054906101000a900473ffffffffffffffffffffffffffffffffffffffff1673ffffffffffffffffffffffffffffffffffffffff1673ffffffffffffffffffffffffffffffffffffffff1681526020019081526020016000206000828254019250508190555060019050919050565b600d6020528060005260406000206000915054906101000a900460ff1681565b6010602052816000526040600020602052806000526040600020600091509150505481565b6000600e600083815260200190815260200160002060070154421015612bb0576040517f08c379a00000000000000000000000000000000000000000000000000000000081526004018080602001828103825260208152602001807f526564656d7074696f6e2074696d6520686173206e6f7420726561636865642e81525060200191505060405180910390fd5b600e600083815260200190815260200160002060010160009054906101000a900473ffffffffffffffffffffffffffffffffffffffff1673ffffffffffffffffffffffffffffffffffffffff163373ffffffffffffffffffffffffffffffffffffffff1614612c6a576040517f08c379a00000000000000000000000000000000000000000000000000000000081526004018080602001828103825260298152602001806137c26029913960400191505060405180910390fd5b60011515600e6000848152602001908152602001600020600b0160019054906101000a900460ff16151514612cea576040517f08c379a00000000000000000000000000000000000000000000000000000000081526004018080602001828103825260298152602001806137996029913960400191505060405180910390fd5b6000600e6000848152602001908152602001600020600a015490506000600e600085815260200190815260200160002060020160009054906101000a900473ffffffffffffffffffffffffffffffffffffffff16905081600f60003373ffffffffffffffffffffffffffffffffffffffff1673ffffffffffffffffffffffffffffffffffffffff1681526020019081526020016000206000828254019250508190555081600f60008373ffffffffffffffffffffffffffffffffffffffff1673ffffffffffffffffffffffffffffffffffffffff168152602001908152602001600020600082825403925050819055506000600e6000868152602001908152602001600020600b0160016101000a81548160ff021916908315150217905550600192505050919050565b600060011515600d60003373ffffffffffffffffffffffffffffffffffffffff1673ffffffffffffffffffffffffffffffffffffffff16815260200190815260200160002060009054906101000a900460ff16151514612ebf576040517f08c379a00000000000000000000000000000000000000000000000000000000081526004018080602001828103825260378152602001806138426037913960400191505060405180910390fd5b6000600c60008473ffffffffffffffffffffffffffffffffffffffff1673ffffffffffffffffffffffffffffffffffffffff16815260200190815260200160002060006101000a81548160ff02191690831515021790555060019050919050565b600060011515600c60003373ffffffffffffffffffffffffffffffffffffffff1673ffffffffffffffffffffffffffffffffffffffff16815260200190815260200160002060009054906101000a900460ff16151514612fcb576040517f08c379a00000000000000000000000000000000000000000000000000000000081526004018080602001828103825260288152602001806138796028913960400191505060405180910390fd5b81600f60003373ffffffffffffffffffffffffffffffffffffffff1673ffffffffffffffffffffffffffffffffffffffff168152602001908152602001600020541015613063576040517f08c379a00000000000000000000000000000000000000000000000000000000081526004018080602001828103825260258152602001806137eb6025913960400191505060405180910390fd5b600860008154809291906001019190505550604051806101a001604052806008548152602001600073ffffffffffffffffffffffffffffffffffffffff168152602001600073ffffffffffffffffffffffffffffffffffffffff168152602001600081526020016000815260200160008152602001600081526020016000815260200160008152602001600081526020016000815260200160001515815260200160001515815250600e600060085481526020019081526020016000206000820151816000015560208201518160010160006101000a81548173ffffffffffffffffffffffffffffffffffffffff021916908373ffffffffffffffffffffffffffffffffffffffff16021790555060408201518160020160006101000a81548173ffffffffffffffffffffffffffffffffffffffff021916908373ffffffffffffffffffffffffffffffffffffffff160217905550606082015181600301556080820151816004015560a0820151816005015560c0820151816006015560e082015181600701556101008201518160080155610120820151816009015561014082015181600a015561016082015181600b0160006101000a81548160ff02191690831515021790555061018082015181600b0160016101000a81548160ff021916908315150217905550905050600854600e600060085481526020019081526020016000206000018190555033600e6000600854815260200190815260200160002060020160006101000a81548173ffffffffffffffffffffffffffffffffffffffff021916908373ffffffffffffffffffffffffffffffffffffffff16021790555083600e600060085481526020019081526020016000206003018190555082600e600060085481526020019081526020016000206004018190555081600e60006008548152602001908152602001600020600601819055506001600e60006008548152602001908152602001600020600b0160006101000a81548160ff021916908315150217905550600190509392505050565b60008083141561336c57600090506133d9565b600082840290508284828161337d57fe5b04146133d4576040517f08c379a00000000000000000000000000000000000000000000000000000000081526004018080602001828103825260218152602001806136f46021913960400191505060405180910390fd5b809150505b92915050565b600061342183836040518060400160405280601a81526020017f536166654d6174683a206469766973696f6e206279207a65726f0000000000008152506134b1565b905092915050565b6000808284019050838110156134a7576040517f08c379a000000000000000000000000000000000000000000000000000000000815260040180806020018281038252601b8152602001807f536166654d6174683a206164646974696f6e206f766572666c6f77000000000081525060200191505060405180910390fd5b8091505092915050565b6000808311829061355d576040517f08c379a00000000000000000000000000000000000000000000000000000000081526004018080602001828103825283818151815260200191508051906020019080838360005b83811015613522578082015181840152602081019050613507565b50505050905090810190601f16801561354f5780820380516001836020036101000a031916815260200191505b509250505060405180910390fd5b50600083858161356957fe5b049050809150509392505050565b828054600181600116156101000203166002900490600052602060002090601f016020900481019282601f106135b857805160ff19168380011785556135e6565b828001600101855582156135e6579182015b828111156135e55782518255916020019190600101906135ca565b5b5090506135f391906135f7565b5090565b61361991905b808211156136155760008160009055506001016135fd565b5090565b9056fe4f6e6c79207468652063656e7472616c2062616e6b2063616e20696e76616c69646174652062616e6b2061646472657373657353656e64657220646f65736e277420686176652073756666696369656e742062616c616e63654f6e6c792063726561746f7220697320616c6c6f776564206f66207468697320616374696f6e43616e6e6f74206d616b65206465706f73697420666f722076616c75652067726561746572207468616e206f6666657265644465706f7369746f722061646472657373206973206e6f74207965742076616c696461746564536166654d6174683a206d756c7469706c69636174696f6e206f766572666c6f77546f2061646472657373206973206e6f742076616c69646174656420616464726573734465706f7369746f72206d75737420686176652073756666696369656e7420746f6b656e7320746f206d616b65206465706f7369747343616e6e6f74206d616b65206465706f73697420746f20616e20756e617661696c61626c65207374617465526564656d7074696f6e2073686f756c64206e6f742068617665206265656e206d616465207965742e43616c6c206261636b206973206f6e6c7920616c6c6f7765642066726f6d206465706f7369746f722e50726f766964657220646f65736e27742068617665206d696e696d756d2062616c616e63654f6e6c7920612076616c69642062616e6b20616464726573732063616e206372656174652075736572206163636f756e74734f6e6c7920612062616e6b206f722063656e7472616c2062616e6b2063616e20696e76616c696461746520757365722061646472657373536572766963652070726f7669646572206d75737420626520612076616c69642061646472657373a265627a7a72315820cd9e0843e72f9a21edc225957978cc0f6f9891fc791b7e1f54afd88d750f3bd164736f6c63430005100032",
  "source": "pragma solidity >=0.4.21 <0.6.0;\nimport \"./SafeMath.sol\";\n\ncontract BOKCoin {\n\t//use SafeMath library\n\tusing SafeMath for uint256;\n\n\t//Name of token\n\tstring public name = \"BOKCoin\";\n\t//Symbol of token\n\tstring public symbol = \"BOK\";\n\t//Standard of token\n\tstring public standard = \"ERC20\";\n\taddress public burner;\n\taddress public creator;\n\tuint256 public totalSupply = 0; //maybe initialize it in constructor\n\n\tuint256 public userAccountsNum = 0; // number that will identify how many unique user addresses are there in the network\n\tuint256 public bankNum = 0;\n\n\t//create a state variable to record totalDeposits so far\n\tuint256 public depositCount = 0; //maybe use it in constructor\n\n\t//dynamic array of addresses of banks\n\taddress[] public banks;\n\n\t//create struct for interest deposit\n\tstruct Deposit {\n\t\tuint256 id;\n\t\taddress payable depositor;\n\t\taddress payable provider;\n\t\tuint256 rate;\n\t\tuint256 timeperiod;\n\t\tuint256 principal;\n\t\tuint256 maxDepositAmt;\n\t\tuint256 endtime;\n\t\tuint256 starttime;\n\t\tuint256 interest;\n\t\tuint256 amt;\n\t\tbool isAvailable;\n\t\tbool notRedeemed;\n\t}\n\n\t//create a struct object for real world identity mapping\n\tstruct AccountInfo {\n\t\taddress userAddress;\n\t\taddress creatorAddress;\n\t\tstring name;\n\t\tstring iddata;\n\t\tuint256 idnum;\n\t}\n\n\t//create a dynamic array of user AccountInfo mapping with accounts number for listing valid user accounts later\n\tmapping(uint256=>AccountInfo) public accountDetailsById;\n\tmapping(address=>AccountInfo) public accountDetailsByAddr;\n\n\t//valid addresses mapping i.e. true is assigned for user addresses that were created\n\tmapping(address=>bool) public validAddresses; //for all addresses\n\tmapping(address=>bool) public validBankAddresses; //only for banks addresses;\n\n\t//create a dynamic array of deposits\n\tmapping(uint256=>Deposit) public deposits;\n\n\n\tmapping(address=>uint256) public balanceOf;\n\tmapping(address=> mapping(address=>uint256)) public allowance;\n\n\tevent Transfer(\n\t\taddress indexed _from,\n\t\taddress indexed _to,\n\t\tuint256 _value\n\n\t);\n\n\tevent Approval(\n\t\taddress indexed _owner,\n\t\taddress indexed _spender,\n\t\tuint256 _value\n\t);\n\n\tevent UserAccountCreated(\n\t\taddress indexed _userAddress,\n\t\taddress indexed _creatorAddress,\n\t\tstring _name,\n\t\tstring _iddata,\n\t\tuint256 _idnum\n\t);\n\n\n\tconstructor(uint256 _initialSupply) public {\n\t\ttotalSupply += _initialSupply; //we want to be able to issue tokens later\n\t\tcreator = msg.sender; //the one who deploys the contract will be the owner/creator\n\t\tburner = 0x0000000000000000000000000000000000000000;\n\t\tbalanceOf[msg.sender] = totalSupply; //initialize totalSupply to the address creator\n\t\tvalidBankAddresses[msg.sender] = true;\n\t\tsetValidAddress(creator); //creators address should also be initialized, so that tokens can be returned to central bank later\n\n\t}\n\n\tmodifier onlyCreator() {\n\t\trequire(msg.sender == creator, \"Only creator is allowed of this action\");\n\t\t_;\n\t}\n\n\n\t//call this function when central bank wants to add/enlist an address as a bank address\n\tfunction addBank(address _bankAddr) public onlyCreator returns (bool success) {\n\t\tbanks.push(address(_bankAddr));\n\t\tbankNum++; //increase the number of addresses for banks\n\t\tvalidBankAddresses[_bankAddr] = true;\n\t\tsetValidAddress(_bankAddr); //bank addresses also need to be set to true, so central bank can transfer tokens\n\t\treturn true;\n\t}\n\n\n\t//function that will add real world account address info into blockchain; this S.C. function should be called on Account address creation\n\t//we need a modifier that says that only banks will be able to execute this\n\tfunction addUserAddressInfo(address _userAddress, string memory _name, string memory _iddata) public returns (bool success) {\n\t\trequire(validBankAddresses[msg.sender] == true, \"Only a valid bank address can create user accounts\");\n\t\tuserAccountsNum++;\n\t\taccountDetailsById[userAccountsNum] = AccountInfo(_userAddress, msg.sender, _name, _iddata, userAccountsNum);\n\t\temit UserAccountCreated(_userAddress, msg.sender, _name, _iddata, userAccountsNum);\n\t\tsetValidAddress(_userAddress);\n\t\treturn true;\n\t}\n\n\t// function that sets an address as valid so as to approve transfer \"to\" accounts\n\t// call this function while creating a new user account after calling addUserAddressInfo\n\tfunction setValidAddress(address _addr) public returns (bool success) {\n\t\tvalidAddresses[_addr] = true;\n\t\treturn true;\n\t}\n\n\tfunction invalidateUserAddress(address _addr) public returns (bool success) {\n\t\trequire(validBankAddresses[msg.sender] == true, \"Only a bank or central bank can invalidate user address\");\n\t\tvalidAddresses[_addr] = false;\n\t\treturn true;\n\t}\n\n\tfunction invalidateBankAddress(address _bankAddr) public returns (bool success) {\n\t\trequire(msg.sender == creator, \"Only the central bank can invalidate bank addresses\");\n\t\tvalidBankAddresses[_bankAddr] = false;\n\t\treturn true;\n\t}\n\n\n\t// transfer\n\tfunction transfer(address _to, uint256 _value) public returns (bool success) {\n\t\t// exception if account doesn't have enough\n\t\trequire(balanceOf[msg.sender] >= _value, \"Sender doesn't have sufficient balance\");\n\n\t\t//amount to transfer must be a valid address\n\t\trequire(validAddresses[_to] == true, \"To address is not validated address\");\n\n\t\t//transfer the balance\n\t\tbalanceOf[msg.sender] -= _value;\n\t\tbalanceOf[_to] += _value;\n\t\t\n\t\t// transfer event\n\t\temit Transfer(msg.sender, _to, _value);\n\t\t\n\t\treturn true;\n\t}\n\n\t//msg.sender is allowing _spender to spend _value tokens from msg.sender accounts\n\tfunction approve(address _spender, uint256 _value) public returns (bool success) {\n\t\tallowance[msg.sender][_spender] = _value;\n\t\temit Approval(msg.sender, _spender, _value);\n\t\treturn true;\n\t}\n\n\tfunction addTokens(uint256 _quantity) public onlyCreator returns (bool success) {\n\t\ttotalSupply += _quantity;\n\t\tbalanceOf[creator] += _quantity;\n\t\treturn true;\n\t}\n\n\tfunction burnTokens(uint256 _quantity) public returns (bool success) {\n\t\ttransfer(burner, _quantity);\n\t\ttotalSupply -= _quantity;\n\t\treturn true;\n\t}\n\n\t//the caller is an authorized address by _from address\n\tfunction transferFrom(address _from, address _to, uint256 _value) public returns (bool success) {\n\t\trequire(balanceOf[_from] >= _value);\n\t\trequire(_value <= allowance[_from][msg.sender]);\n\t\tbalanceOf[_from] -= _value;\n\t\tbalanceOf[_to] += _value;\n\t\tallowance[_from][msg.sender] -= _value;\n\t\temit Transfer(_from, _to, _value);\n\t\treturn true;\n\t}\n\n\t//provider offers deposits\n\tfunction offerDeposit(uint256 _rate, uint256 _timeperiod, uint256 _maxDepositAmt) public returns (bool success) {\n\t\t//perform basic requirement check \n\t\trequire(validAddresses[msg.sender] == true, \"Service provider must be a valid address\");\n\t\trequire(balanceOf[msg.sender] >= _maxDepositAmt, \"Provider doesn't have minimum balance\");\n\t\tdepositCount++;\n\n\t\t//initialize the Deposit struct for the corresponding id\n\t\tdeposits[depositCount] = Deposit(depositCount, 0x0000000000000000000000000000000000000000, 0x0000000000000000000000000000000000000000, 0, 0, 0, 0, 0, 0, 0, 0, false, false);\n\n\t\t//update the fields of the created Deposit struct\n\t\tdeposits[depositCount].id = depositCount;\n\t\tdeposits[depositCount].provider = msg.sender;\n\t\tdeposits[depositCount].rate = _rate;\n\t\tdeposits[depositCount].timeperiod = _timeperiod;\n\t\tdeposits[depositCount].maxDepositAmt = _maxDepositAmt;\n\t\tdeposits[depositCount].isAvailable = true;\n\t\treturn true;\n\t}\n\n\t//depositor makes deposit\n\tfunction makeDeposit(uint256 _id, uint256 _principal) public payable returns (bool success) {\n\t\t// basic requirements checks\n\t\trequire(validAddresses[msg.sender] == true, \"Depositor address is not yet validated\");\n\t\trequire(balanceOf[msg.sender] >= _principal, \"Depositor must have sufficient tokens to make deposits\");\n\t\trequire(_principal <= deposits[_id].maxDepositAmt, \"Cannot make deposit for value greater than offered\");\n\t\trequire(deposits[_id].isAvailable == true, \"Cannot make deposit to an unavailable state\");\n\t\t\n\t\t//setup values for the deposits mapping\n\t\tdeposits[_id].depositor = msg.sender;\n\t\tdeposits[_id].principal = _principal;\n\t\tdeposits[_id].starttime = now;\n\t\tdeposits[_id].endtime = deposits[_id].starttime + deposits[_id].timeperiod * 1 minutes;\n\t\tdeposits[_id].notRedeemed = true;\n\t\tdeposits[_id].isAvailable = false;\n\n\t\t//transfer the amounts from depositor to provider\n\t\taddress payable _provider = deposits[_id].provider;\n\t\tbalanceOf[msg.sender] -= _principal;\n\t\tbalanceOf[_provider] += _principal;\n\n\t\t//calculate interest and amount that will be later redeemed\n\t\tuint256 _ptr;\n\t\tuint256 _rate = deposits[_id].rate;\n\t\tuint256 _timeperiod = deposits[_id].timeperiod;\n\t\t_ptr = (_principal.mul(_rate)).mul(_timeperiod);\n\t\tdeposits[_id].interest = _ptr.div(100);\n\t\tdeposits[_id].amt = _principal.add(deposits[_id].interest);\n\n\t\treturn true;\n\n\t}\n\n\tfunction receiveBack(uint256 _id) public payable returns (bool success) {\n\t\t// basic requirements checks\n\t\trequire(now >= deposits[_id].endtime, \"Redemption time has not reached.\");\n\t\trequire(msg.sender == deposits[_id].depositor, \"Call back is only allowed from depositor.\");\n\t\trequire(deposits[_id].notRedeemed == true, \"Redemption should not have been made yet.\");\n\n\t\t//retrive amount and provider from deposits\n\t\tuint256 _amount = deposits[_id].amt;\n\t\taddress payable _provider = deposits[_id].provider;\n\t\tbalanceOf[msg.sender] += _amount;\n\t\tbalanceOf[_provider] -= _amount;\n\n\t\t//update notRedeemed flag\n\t\tdeposits[_id].notRedeemed = false;\n\n\t\treturn true;\n\t}\n}",
  "sourcePath": "/home/sajan/bokcoin/contracts/BOKCoin.sol",
  "compiler": {
    "name": "solc",
    "version": "0.5.16+commit.9c3226ce.Emscripten.clang"
  },
  "schemaVersion": "3.0.22",
  "updatedAt": "2020-06-24T14:47:22.903Z",
  "networkType": "ethereum",
  "devdoc": {
    "methods": {}
  },
  "userdoc": {
    "methods": {}
  }
}