{
  "contractName": "BOKCoin",
  "abi": [
    {
      "inputs": [
        {
          "internalType": "uint256",
          "name": "_initialSupply",
          "type": "uint256"
        }
      ],
      "payable": false,
      "stateMutability": "nonpayable",
      "type": "constructor"
    },
    {
      "anonymous": false,
      "inputs": [
        {
          "indexed": true,
          "internalType": "address",
          "name": "_owner",
          "type": "address"
        },
        {
          "indexed": true,
          "internalType": "address",
          "name": "_spender",
          "type": "address"
        },
        {
          "indexed": false,
          "internalType": "uint256",
          "name": "_value",
          "type": "uint256"
        }
      ],
      "name": "Approval",
      "type": "event"
    },
    {
      "anonymous": false,
      "inputs": [
        {
          "indexed": true,
          "internalType": "address",
          "name": "_from",
          "type": "address"
        },
        {
          "indexed": true,
          "internalType": "address",
          "name": "_to",
          "type": "address"
        },
        {
          "indexed": false,
          "internalType": "uint256",
          "name": "_value",
          "type": "uint256"
        }
      ],
      "name": "Transfer",
      "type": "event"
    },
    {
      "constant": true,
      "inputs": [
        {
          "internalType": "address",
          "name": "",
          "type": "address"
        },
        {
          "internalType": "address",
          "name": "",
          "type": "address"
        }
      ],
      "name": "allowance",
      "outputs": [
        {
          "internalType": "uint256",
          "name": "",
          "type": "uint256"
        }
      ],
      "payable": false,
      "stateMutability": "view",
      "type": "function"
    },
    {
      "constant": true,
      "inputs": [
        {
          "internalType": "address",
          "name": "",
          "type": "address"
        }
      ],
      "name": "balanceOf",
      "outputs": [
        {
          "internalType": "uint256",
          "name": "",
          "type": "uint256"
        }
      ],
      "payable": false,
      "stateMutability": "view",
      "type": "function"
    },
    {
      "constant": true,
      "inputs": [],
      "name": "burner",
      "outputs": [
        {
          "internalType": "address",
          "name": "",
          "type": "address"
        }
      ],
      "payable": false,
      "stateMutability": "view",
      "type": "function"
    },
    {
      "constant": true,
      "inputs": [],
      "name": "creator",
      "outputs": [
        {
          "internalType": "address",
          "name": "",
          "type": "address"
        }
      ],
      "payable": false,
      "stateMutability": "view",
      "type": "function"
    },
    {
      "constant": true,
      "inputs": [],
      "name": "depositCount",
      "outputs": [
        {
          "internalType": "uint256",
          "name": "",
          "type": "uint256"
        }
      ],
      "payable": false,
      "stateMutability": "view",
      "type": "function"
    },
    {
      "constant": true,
      "inputs": [
        {
          "internalType": "uint256",
          "name": "",
          "type": "uint256"
        }
      ],
      "name": "deposits",
      "outputs": [
        {
          "internalType": "uint256",
          "name": "id",
          "type": "uint256"
        },
        {
          "internalType": "address payable",
          "name": "depositor",
          "type": "address"
        },
        {
          "internalType": "address payable",
          "name": "provider",
          "type": "address"
        },
        {
          "internalType": "uint256",
          "name": "rate",
          "type": "uint256"
        },
        {
          "internalType": "uint256",
          "name": "timeperiod",
          "type": "uint256"
        },
        {
          "internalType": "uint256",
          "name": "principal",
          "type": "uint256"
        },
        {
          "internalType": "uint256",
          "name": "maxDepositAmt",
          "type": "uint256"
        },
        {
          "internalType": "uint256",
          "name": "endtime",
          "type": "uint256"
        },
        {
          "internalType": "uint256",
          "name": "starttime",
          "type": "uint256"
        },
        {
          "internalType": "uint256",
          "name": "interest",
          "type": "uint256"
        },
        {
          "internalType": "uint256",
          "name": "amt",
          "type": "uint256"
        },
        {
          "internalType": "bool",
          "name": "isAvailable",
          "type": "bool"
        },
        {
          "internalType": "bool",
          "name": "notRedeemed",
          "type": "bool"
        }
      ],
      "payable": false,
      "stateMutability": "view",
      "type": "function"
    },
    {
      "constant": true,
      "inputs": [],
      "name": "name",
      "outputs": [
        {
          "internalType": "string",
          "name": "",
          "type": "string"
        }
      ],
      "payable": false,
      "stateMutability": "view",
      "type": "function"
    },
    {
      "constant": true,
      "inputs": [],
      "name": "standard",
      "outputs": [
        {
          "internalType": "string",
          "name": "",
          "type": "string"
        }
      ],
      "payable": false,
      "stateMutability": "view",
      "type": "function"
    },
    {
      "constant": true,
      "inputs": [],
      "name": "symbol",
      "outputs": [
        {
          "internalType": "string",
          "name": "",
          "type": "string"
        }
      ],
      "payable": false,
      "stateMutability": "view",
      "type": "function"
    },
    {
      "constant": true,
      "inputs": [],
      "name": "totalSupply",
      "outputs": [
        {
          "internalType": "uint256",
          "name": "",
          "type": "uint256"
        }
      ],
      "payable": false,
      "stateMutability": "view",
      "type": "function"
    },
    {
      "constant": false,
      "inputs": [
        {
          "internalType": "address",
          "name": "_to",
          "type": "address"
        },
        {
          "internalType": "uint256",
          "name": "_value",
          "type": "uint256"
        }
      ],
      "name": "transfer",
      "outputs": [
        {
          "internalType": "bool",
          "name": "success",
          "type": "bool"
        }
      ],
      "payable": false,
      "stateMutability": "nonpayable",
      "type": "function"
    },
    {
      "constant": false,
      "inputs": [
        {
          "internalType": "address",
          "name": "_spender",
          "type": "address"
        },
        {
          "internalType": "uint256",
          "name": "_value",
          "type": "uint256"
        }
      ],
      "name": "approve",
      "outputs": [
        {
          "internalType": "bool",
          "name": "success",
          "type": "bool"
        }
      ],
      "payable": false,
      "stateMutability": "nonpayable",
      "type": "function"
    },
    {
      "constant": false,
      "inputs": [
        {
          "internalType": "uint256",
          "name": "_quantity",
          "type": "uint256"
        }
      ],
      "name": "addTokens",
      "outputs": [
        {
          "internalType": "bool",
          "name": "success",
          "type": "bool"
        }
      ],
      "payable": false,
      "stateMutability": "nonpayable",
      "type": "function"
    },
    {
      "constant": false,
      "inputs": [
        {
          "internalType": "uint256",
          "name": "_quantity",
          "type": "uint256"
        }
      ],
      "name": "burnTokens",
      "outputs": [
        {
          "internalType": "bool",
          "name": "success",
          "type": "bool"
        }
      ],
      "payable": false,
      "stateMutability": "nonpayable",
      "type": "function"
    },
    {
      "constant": false,
      "inputs": [
        {
          "internalType": "address",
          "name": "_from",
          "type": "address"
        },
        {
          "internalType": "address",
          "name": "_to",
          "type": "address"
        },
        {
          "internalType": "uint256",
          "name": "_value",
          "type": "uint256"
        }
      ],
      "name": "transferFrom",
      "outputs": [
        {
          "internalType": "bool",
          "name": "success",
          "type": "bool"
        }
      ],
      "payable": false,
      "stateMutability": "nonpayable",
      "type": "function"
    },
    {
      "constant": false,
      "inputs": [
        {
          "internalType": "uint256",
          "name": "_rate",
          "type": "uint256"
        },
        {
          "internalType": "uint256",
          "name": "_timeperiod",
          "type": "uint256"
        },
        {
          "internalType": "uint256",
          "name": "_maxDepositAmt",
          "type": "uint256"
        }
      ],
      "name": "offerDeposit",
      "outputs": [
        {
          "internalType": "bool",
          "name": "success",
          "type": "bool"
        }
      ],
      "payable": false,
      "stateMutability": "nonpayable",
      "type": "function"
    },
    {
      "constant": false,
      "inputs": [
        {
          "internalType": "uint256",
          "name": "_id",
          "type": "uint256"
        },
        {
          "internalType": "uint256",
          "name": "_principal",
          "type": "uint256"
        }
      ],
      "name": "makeDeposit",
      "outputs": [
        {
          "internalType": "bool",
          "name": "success",
          "type": "bool"
        }
      ],
      "payable": true,
      "stateMutability": "payable",
      "type": "function"
    },
    {
      "constant": false,
      "inputs": [
        {
          "internalType": "uint256",
          "name": "_id",
          "type": "uint256"
        }
      ],
      "name": "receiveBack",
      "outputs": [
        {
          "internalType": "bool",
          "name": "success",
          "type": "bool"
        }
      ],
      "payable": true,
      "stateMutability": "payable",
      "type": "function"
    }
  ],
  "bytecode": "0x60806040526040518060400160405280600781526020017f424f4b436f696e0000000000000000000000000000000000000000000000000081525060009080519060200190620000519291906200021c565b506040518060400160405280600381526020017f424f4b0000000000000000000000000000000000000000000000000000000000815250600190805190602001906200009f9291906200021c565b506040518060400160405280600581526020017f455243323000000000000000000000000000000000000000000000000000000081525060029080519060200190620000ed9291906200021c565b50600060055560006006553480156200010557600080fd5b506040516200239738038062002397833981810160405260208110156200012b57600080fd5b81019080805190602001909291905050508060056000828254019250508190555033600460006101000a81548173ffffffffffffffffffffffffffffffffffffffff021916908373ffffffffffffffffffffffffffffffffffffffff1602179055506000600360006101000a81548173ffffffffffffffffffffffffffffffffffffffff021916908373ffffffffffffffffffffffffffffffffffffffff160217905550600554600860003373ffffffffffffffffffffffffffffffffffffffff1673ffffffffffffffffffffffffffffffffffffffff1681526020019081526020016000208190555050620002cb565b828054600181600116156101000203166002900490600052602060002090601f016020900481019282601f106200025f57805160ff191683800117855562000290565b8280016001018555821562000290579182015b828111156200028f57825182559160200191906001019062000272565b5b5090506200029f9190620002a3565b5090565b620002c891905b80821115620002c4576000816000905550600101620002aa565b5090565b90565b6120bc80620002db6000396000f3fe6080604052600436106101095760003560e01c80636d1b229d11610095578063b02c43d011610064578063b02c43d014610643578063c6ed899014610746578063dd62ed3e14610799578063de8f641f1461081e578063f3821da31461086457610109565b80636d1b229d1461048857806370a08231146104db57806395d89b4114610540578063a9059cbb146105d057610109565b806323b872dd116100dc57806323b872dd1461029357806327810b6e146103265780632dfdf0b51461037d5780633f0f4076146103a85780635a3b7e42146103f857610109565b806302d05d3f1461010e57806306fdde0314610165578063095ea7b3146101f557806318160ddd14610268575b600080fd5b34801561011a57600080fd5b506101236108cb565b604051808273ffffffffffffffffffffffffffffffffffffffff1673ffffffffffffffffffffffffffffffffffffffff16815260200191505060405180910390f35b34801561017157600080fd5b5061017a6108f1565b6040518080602001828103825283818151815260200191508051906020019080838360005b838110156101ba57808201518184015260208101905061019f565b50505050905090810190601f1680156101e75780820380516001836020036101000a031916815260200191505b509250505060405180910390f35b34801561020157600080fd5b5061024e6004803603604081101561021857600080fd5b81019080803573ffffffffffffffffffffffffffffffffffffffff1690602001909291908035906020019092919050505061098f565b604051808215151515815260200191505060405180910390f35b34801561027457600080fd5b5061027d610a81565b6040518082815260200191505060405180910390f35b34801561029f57600080fd5b5061030c600480360360608110156102b657600080fd5b81019080803573ffffffffffffffffffffffffffffffffffffffff169060200190929190803573ffffffffffffffffffffffffffffffffffffffff16906020019092919080359060200190929190505050610a87565b604051808215151515815260200191505060405180910390f35b34801561033257600080fd5b5061033b610cf2565b604051808273ffffffffffffffffffffffffffffffffffffffff1673ffffffffffffffffffffffffffffffffffffffff16815260200191505060405180910390f35b34801561038957600080fd5b50610392610d18565b6040518082815260200191505060405180910390f35b6103de600480360360408110156103be57600080fd5b810190808035906020019092919080359060200190929190505050610d1e565b604051808215151515815260200191505060405180910390f35b34801561040457600080fd5b5061040d61118e565b6040518080602001828103825283818151815260200191508051906020019080838360005b8381101561044d578082015181840152602081019050610432565b50505050905090810190601f16801561047a5780820380516001836020036101000a031916815260200191505b509250505060405180910390f35b34801561049457600080fd5b506104c1600480360360208110156104ab57600080fd5b810190808035906020019092919050505061122c565b604051808215151515815260200191505060405180910390f35b3480156104e757600080fd5b5061052a600480360360208110156104fe57600080fd5b81019080803573ffffffffffffffffffffffffffffffffffffffff169060200190929190505050611274565b6040518082815260200191505060405180910390f35b34801561054c57600080fd5b5061055561128c565b6040518080602001828103825283818151815260200191508051906020019080838360005b8381101561059557808201518184015260208101905061057a565b50505050905090810190601f1680156105c25780820380516001836020036101000a031916815260200191505b509250505060405180910390f35b3480156105dc57600080fd5b50610629600480360360408110156105f357600080fd5b81019080803573ffffffffffffffffffffffffffffffffffffffff1690602001909291908035906020019092919050505061132a565b604051808215151515815260200191505060405180910390f35b34801561064f57600080fd5b5061067c6004803603602081101561066657600080fd5b8101908080359060200190929190505050611481565b604051808e81526020018d73ffffffffffffffffffffffffffffffffffffffff1673ffffffffffffffffffffffffffffffffffffffff1681526020018c73ffffffffffffffffffffffffffffffffffffffff1673ffffffffffffffffffffffffffffffffffffffff1681526020018b81526020018a815260200189815260200188815260200187815260200186815260200185815260200184815260200183151515158152602001821515151581526020019d505050505050505050505050505060405180910390f35b34801561075257600080fd5b5061077f6004803603602081101561076957600080fd5b8101908080359060200190929190505050611541565b604051808215151515815260200191505060405180910390f35b3480156107a557600080fd5b50610808600480360360408110156107bc57600080fd5b81019080803573ffffffffffffffffffffffffffffffffffffffff169060200190929190803573ffffffffffffffffffffffffffffffffffffffff169060200190929190505050611671565b6040518082815260200191505060405180910390f35b61084a6004803603602081101561083457600080fd5b8101908080359060200190929190505050611696565b604051808215151515815260200191505060405180910390f35b34801561087057600080fd5b506108b16004803603606081101561088757600080fd5b81019080803590602001909291908035906020019092919080359060200190929190505050611988565b604051808215151515815260200191505060405180910390f35b600460009054906101000a900473ffffffffffffffffffffffffffffffffffffffff1681565b60008054600181600116156101000203166002900480601f0160208091040260200160405190810160405280929190818152602001828054600181600116156101000203166002900480156109875780601f1061095c57610100808354040283529160200191610987565b820191906000526020600020905b81548152906001019060200180831161096a57829003601f168201915b505050505081565b600081600960003373ffffffffffffffffffffffffffffffffffffffff1673ffffffffffffffffffffffffffffffffffffffff16815260200190815260200160002060008573ffffffffffffffffffffffffffffffffffffffff1673ffffffffffffffffffffffffffffffffffffffff168152602001908152602001600020819055508273ffffffffffffffffffffffffffffffffffffffff163373ffffffffffffffffffffffffffffffffffffffff167f8c5be1e5ebec7d5bd14f71427d1e84f3dd0314c0f7b2291e5b200ac8c7c3b925846040518082815260200191505060405180910390a36001905092915050565b60055481565b600081600860008673ffffffffffffffffffffffffffffffffffffffff1673ffffffffffffffffffffffffffffffffffffffff168152602001908152602001600020541015610ad557600080fd5b600960008573ffffffffffffffffffffffffffffffffffffffff1673ffffffffffffffffffffffffffffffffffffffff16815260200190815260200160002060003373ffffffffffffffffffffffffffffffffffffffff1673ffffffffffffffffffffffffffffffffffffffff16815260200190815260200160002054821115610b5e57600080fd5b81600860008673ffffffffffffffffffffffffffffffffffffffff1673ffffffffffffffffffffffffffffffffffffffff1681526020019081526020016000206000828254039250508190555081600860008573ffffffffffffffffffffffffffffffffffffffff1673ffffffffffffffffffffffffffffffffffffffff1681526020019081526020016000206000828254019250508190555081600960008673ffffffffffffffffffffffffffffffffffffffff1673ffffffffffffffffffffffffffffffffffffffff16815260200190815260200160002060003373ffffffffffffffffffffffffffffffffffffffff1673ffffffffffffffffffffffffffffffffffffffff168152602001908152602001600020600082825403925050819055508273ffffffffffffffffffffffffffffffffffffffff168473ffffffffffffffffffffffffffffffffffffffff167fddf252ad1be2c89b69c2b068fc378daa952ba7f163c4a11628f55a4df523b3ef846040518082815260200191505060405180910390a3600190509392505050565b600360009054906101000a900473ffffffffffffffffffffffffffffffffffffffff1681565b60065481565b600081600860003373ffffffffffffffffffffffffffffffffffffffff1673ffffffffffffffffffffffffffffffffffffffff168152602001908152602001600020541015610db8576040517f08c379a0000000000000000000000000000000000000000000000000000000008152600401808060200182810382526036815260200180611fb06036913960400191505060405180910390fd5b6007600084815260200190815260200160002060060154821115610e27576040517f08c379a0000000000000000000000000000000000000000000000000000000008152600401808060200182810382526032815260200180611f5d6032913960400191505060405180910390fd5b6001151560076000858152602001908152602001600020600b0160009054906101000a900460ff16151514610ea7576040517f08c379a000000000000000000000000000000000000000000000000000000000815260040180806020018281038252602b815260200180611fe6602b913960400191505060405180910390fd5b336007600085815260200190815260200160002060010160006101000a81548173ffffffffffffffffffffffffffffffffffffffff021916908373ffffffffffffffffffffffffffffffffffffffff160217905550816007600085815260200190815260200160002060050181905550426007600085815260200190815260200160002060080181905550603c6007600085815260200190815260200160002060040154026007600085815260200190815260200160002060080154016007600085815260200190815260200160002060070181905550600160076000858152602001908152602001600020600b0160016101000a81548160ff021916908315150217905550600060076000858152602001908152602001600020600b0160006101000a81548160ff02191690831515021790555060006007600085815260200190815260200160002060020160009054906101000a900473ffffffffffffffffffffffffffffffffffffffff16905082600860003373ffffffffffffffffffffffffffffffffffffffff1673ffffffffffffffffffffffffffffffffffffffff1681526020019081526020016000206000828254039250508190555082600860008373ffffffffffffffffffffffffffffffffffffffff1673ffffffffffffffffffffffffffffffffffffffff168152602001908152602001600020600082825401925050819055506000806007600087815260200190815260200160002060030154905060006007600088815260200190815260200160002060040154905061110d816110ff8489611d1890919063ffffffff16565b611d1890919063ffffffff16565b9250611123606484611d9e90919063ffffffff16565b6007600089815260200190815260200160002060090181905550611166600760008981526020019081526020016000206009015487611de890919063ffffffff16565b60076000898152602001908152602001600020600a0181905550600194505050505092915050565b60028054600181600116156101000203166002900480601f0160208091040260200160405190810160405280929190818152602001828054600181600116156101000203166002900480156112245780601f106111f957610100808354040283529160200191611224565b820191906000526020600020905b81548152906001019060200180831161120757829003601f168201915b505050505081565b600061125a600360009054906101000a900473ffffffffffffffffffffffffffffffffffffffff168361132a565b508160056000828254039250508190555060019050919050565b60086020528060005260406000206000915090505481565b60018054600181600116156101000203166002900480601f0160208091040260200160405190810160405280929190818152602001828054600181600116156101000203166002900480156113225780601f106112f757610100808354040283529160200191611322565b820191906000526020600020905b81548152906001019060200180831161130557829003601f168201915b505050505081565b600081600860003373ffffffffffffffffffffffffffffffffffffffff1673ffffffffffffffffffffffffffffffffffffffff16815260200190815260200160002054101561137857600080fd5b81600860003373ffffffffffffffffffffffffffffffffffffffff1673ffffffffffffffffffffffffffffffffffffffff1681526020019081526020016000206000828254039250508190555081600860008573ffffffffffffffffffffffffffffffffffffffff1673ffffffffffffffffffffffffffffffffffffffff168152602001908152602001600020600082825401925050819055508273ffffffffffffffffffffffffffffffffffffffff163373ffffffffffffffffffffffffffffffffffffffff167fddf252ad1be2c89b69c2b068fc378daa952ba7f163c4a11628f55a4df523b3ef846040518082815260200191505060405180910390a36001905092915050565b60076020528060005260406000206000915090508060000154908060010160009054906101000a900473ffffffffffffffffffffffffffffffffffffffff16908060020160009054906101000a900473ffffffffffffffffffffffffffffffffffffffff169080600301549080600401549080600501549080600601549080600701549080600801549080600901549080600a01549080600b0160009054906101000a900460ff169080600b0160019054906101000a900460ff1690508d565b6000600460009054906101000a900473ffffffffffffffffffffffffffffffffffffffff1673ffffffffffffffffffffffffffffffffffffffff163373ffffffffffffffffffffffffffffffffffffffff16146115e9576040517f08c379a0000000000000000000000000000000000000000000000000000000008152600401808060200182810382526026815260200180611f376026913960400191505060405180910390fd5b816005600082825401925050819055508160086000600460009054906101000a900473ffffffffffffffffffffffffffffffffffffffff1673ffffffffffffffffffffffffffffffffffffffff1673ffffffffffffffffffffffffffffffffffffffff1681526020019081526020016000206000828254019250508190555060019050919050565b6009602052816000526040600020602052806000526040600020600091509150505481565b60006007600083815260200190815260200160002060070154421015611724576040517f08c379a00000000000000000000000000000000000000000000000000000000081526004018080602001828103825260208152602001807f526564656d7074696f6e2074696d6520686173206e6f7420726561636865642e81525060200191505060405180910390fd5b6007600083815260200190815260200160002060010160009054906101000a900473ffffffffffffffffffffffffffffffffffffffff1673ffffffffffffffffffffffffffffffffffffffff163373ffffffffffffffffffffffffffffffffffffffff16146117de576040517f08c379a000000000000000000000000000000000000000000000000000000000815260040180806020018281038252602981526020018061203a6029913960400191505060405180910390fd5b6001151560076000848152602001908152602001600020600b0160019054906101000a900460ff1615151461185e576040517f08c379a00000000000000000000000000000000000000000000000000000000081526004018080602001828103825260298152602001806120116029913960400191505060405180910390fd5b600060076000848152602001908152602001600020600a0154905060006007600085815260200190815260200160002060020160009054906101000a900473ffffffffffffffffffffffffffffffffffffffff16905081600860003373ffffffffffffffffffffffffffffffffffffffff1673ffffffffffffffffffffffffffffffffffffffff1681526020019081526020016000206000828254019250508190555081600860008373ffffffffffffffffffffffffffffffffffffffff1673ffffffffffffffffffffffffffffffffffffffff16815260200190815260200160002060008282540392505081905550600060076000868152602001908152602001600020600b0160016101000a81548160ff021916908315150217905550600192505050919050565b600081600860003373ffffffffffffffffffffffffffffffffffffffff1673ffffffffffffffffffffffffffffffffffffffff168152602001908152602001600020541015611a22576040517f08c379a00000000000000000000000000000000000000000000000000000000081526004018080602001828103825260258152602001806120636025913960400191505060405180910390fd5b600660008154809291906001019190505550604051806101a001604052806006548152602001600073ffffffffffffffffffffffffffffffffffffffff168152602001600073ffffffffffffffffffffffffffffffffffffffff1681526020016000815260200160008152602001600081526020016000815260200160008152602001600081526020016000815260200160008152602001600015158152602001600015158152506007600060065481526020019081526020016000206000820151816000015560208201518160010160006101000a81548173ffffffffffffffffffffffffffffffffffffffff021916908373ffffffffffffffffffffffffffffffffffffffff16021790555060408201518160020160006101000a81548173ffffffffffffffffffffffffffffffffffffffff021916908373ffffffffffffffffffffffffffffffffffffffff160217905550606082015181600301556080820151816004015560a0820151816005015560c0820151816006015560e082015181600701556101008201518160080155610120820151816009015561014082015181600a015561016082015181600b0160006101000a81548160ff02191690831515021790555061018082015181600b0160016101000a81548160ff021916908315150217905550905050600654600760006006548152602001908152602001600020600001819055503360076000600654815260200190815260200160002060020160006101000a81548173ffffffffffffffffffffffffffffffffffffffff021916908373ffffffffffffffffffffffffffffffffffffffff1602179055508360076000600654815260200190815260200160002060030181905550826007600060065481526020019081526020016000206004018190555081600760006006548152602001908152602001600020600601819055506001600760006006548152602001908152602001600020600b0160006101000a81548160ff021916908315150217905550600190509392505050565b600080831415611d2b5760009050611d98565b6000828402905082848281611d3c57fe5b0414611d93576040517f08c379a0000000000000000000000000000000000000000000000000000000008152600401808060200182810382526021815260200180611f8f6021913960400191505060405180910390fd5b809150505b92915050565b6000611de083836040518060400160405280601a81526020017f536166654d6174683a206469766973696f6e206279207a65726f000000000000815250611e70565b905092915050565b600080828401905083811015611e66576040517f08c379a000000000000000000000000000000000000000000000000000000000815260040180806020018281038252601b8152602001807f536166654d6174683a206164646974696f6e206f766572666c6f77000000000081525060200191505060405180910390fd5b8091505092915050565b60008083118290611f1c576040517f08c379a00000000000000000000000000000000000000000000000000000000081526004018080602001828103825283818151815260200191508051906020019080838360005b83811015611ee1578082015181840152602081019050611ec6565b50505050905090810190601f168015611f0e5780820380516001836020036101000a031916815260200191505b509250505060405180910390fd5b506000838581611f2857fe5b04905080915050939250505056fe4f6e6c792063726561746f7220697320616c6c6f776564206f66207468697320616374696f6e43616e6e6f74206d616b65206465706f73697420666f722076616c75652067726561746572207468616e206f666665726564536166654d6174683a206d756c7469706c69636174696f6e206f766572666c6f774465706f7369746f72206d75737420686176652073756666696369656e7420746f6b656e7320746f206d616b65206465706f7369747343616e6e6f74206d616b65206465706f73697420746f20616e20756e617661696c61626c65207374617465526564656d7074696f6e2073686f756c64206e6f742068617665206265656e206d616465207965742e43616c6c206261636b206973206f6e6c7920616c6c6f7765642066726f6d206465706f7369746f722e50726f766964657220646f65736e27742068617665206d696e696d756d2062616c616e6365a265627a7a723158207767a86d264262bb4bdc71c5c1ca044c7897002a684b1dc2f0e5643f34d7637064736f6c63430005100032",
  "source": "pragma solidity >=0.4.21 <0.6.0;\nimport \"./SafeMath.sol\";\n\ncontract BOKCoin {\n\t//use SafeMath library\n\tusing SafeMath for uint256;\n\n\t//Name of token\n\tstring public name = \"BOKCoin\";\n\t//Symbol of token\n\tstring public symbol = \"BOK\";\n\t//Standard of token\n\tstring public standard = \"ERC20\";\n\taddress public burner;\n\taddress public creator;\n\tuint256 public totalSupply = 0; //maybe initialize it in constructor\n\n\t//create a state variable to record totalDeposits so far\n\tuint256 public depositCount = 0; //maybe use it in constructor\n\n\t//create struct for interest deposit\n\tstruct Deposit {\n\t\tuint256 id;\n\t\taddress payable depositor;\n\t\taddress payable provider;\n\t\tuint256 rate;\n\t\tuint256 timeperiod;\n\t\tuint256 principal;\n\t\tuint256 maxDepositAmt;\n\t\tuint256 endtime;\n\t\tuint256 starttime;\n\t\tuint256 interest;\n\t\tuint256 amt;\n\t\tbool isAvailable;\n\t\tbool notRedeemed;\n\t}\n\n\t//create a dynamic array of deposits\n\tmapping(uint256=>Deposit) public deposits;\n\n\n\tmapping(address=>uint256) public balanceOf;\n\tmapping(address=> mapping(address=>uint256)) public allowance;\n\n\tevent Transfer(\n\t\taddress indexed _from,\n\t\taddress indexed _to,\n\t\tuint256 _value\n\n\t);\n\n\tevent Approval(\n\t\taddress indexed _owner,\n\t\taddress indexed _spender,\n\t\tuint256 _value\n\t);\n\n\tconstructor(uint256 _initialSupply) public {\n\t\ttotalSupply += _initialSupply; //we want to be able to issue tokens later\n\t\tcreator = msg.sender; //the one who deploys the contract will be the owner/creator\n\t\tburner = 0x0000000000000000000000000000000000000000;\n\t\tbalanceOf[msg.sender] = totalSupply; //initialize totalSupply to the address creator\n\n\t}\n\n\tmodifier onlyCreator() {\n\t\trequire(msg.sender == creator, \"Only creator is allowed of this action\");\n\t\t_;\n\t}\n\n\t// transfer\n\tfunction transfer(address _to, uint256 _value) public returns (bool success) {\n\t\t// exception if account doesn't have enough\n\t\trequire(balanceOf[msg.sender] >= _value);\n\t\t//transfer the balance\n\t\tbalanceOf[msg.sender] -= _value;\n\t\tbalanceOf[_to] += _value;\n\t\t// transfer event\n\t\temit Transfer(msg.sender, _to, _value);\n\t\treturn true;\n\t}\n\n\t//msg.sender is allowing _spender to spend _value tokens from msg.sender accounts\n\tfunction approve(address _spender, uint256 _value) public returns (bool success) {\n\t\tallowance[msg.sender][_spender] = _value;\n\t\temit Approval(msg.sender, _spender, _value);\n\t\treturn true;\n\t}\n\n\tfunction addTokens(uint256 _quantity) public onlyCreator returns (bool success) {\n\t\ttotalSupply += _quantity;\n\t\tbalanceOf[creator] += _quantity;\n\t\treturn true;\n\t}\n\n\tfunction burnTokens(uint256 _quantity) public returns (bool success) {\n\t\ttransfer(burner, _quantity);\n\t\ttotalSupply -= _quantity;\n\t\treturn true;\n\t}\n\n\t//the caller is an authorized address by _from address\n\tfunction transferFrom(address _from, address _to, uint256 _value) public returns (bool success) {\n\t\trequire(balanceOf[_from] >= _value);\n\t\trequire(_value <= allowance[_from][msg.sender]);\n\t\tbalanceOf[_from] -= _value;\n\t\tbalanceOf[_to] += _value;\n\t\tallowance[_from][msg.sender] -= _value;\n\t\temit Transfer(_from, _to, _value);\n\t\treturn true;\n\t}\n\n\t//provider offers deposits\n\tfunction offerDeposit(uint256 _rate, uint256 _timeperiod, uint256 _maxDepositAmt) public returns (bool success) {\n\t\t//perform basic requirement check \n\t\trequire(balanceOf[msg.sender] >= _maxDepositAmt, \"Provider doesn't have minimum balance\");\n\t\tdepositCount++;\n\n\t\t//initialize the Deposit struct for the corresponding id\n\t\tdeposits[depositCount] = Deposit(depositCount, 0x0000000000000000000000000000000000000000, 0x0000000000000000000000000000000000000000, 0, 0, 0, 0, 0, 0, 0, 0, false, false);\n\n\t\t//update the fields of the created Deposit struct\n\t\tdeposits[depositCount].id = depositCount;\n\t\tdeposits[depositCount].provider = msg.sender;\n\t\tdeposits[depositCount].rate = _rate;\n\t\tdeposits[depositCount].timeperiod = _timeperiod;\n\t\tdeposits[depositCount].maxDepositAmt = _maxDepositAmt;\n\t\tdeposits[depositCount].isAvailable = true;\n\t\treturn true;\n\t}\n\n\t//depositor makes deposit\n\tfunction makeDeposit(uint256 _id, uint256 _principal) public payable returns (bool success) {\n\t\t// basic requirements checks\n\t\trequire(balanceOf[msg.sender] >= _principal, \"Depositor must have sufficient tokens to make deposits\");\n\t\trequire(_principal <= deposits[_id].maxDepositAmt, \"Cannot make deposit for value greater than offered\");\n\t\trequire(deposits[_id].isAvailable == true, \"Cannot make deposit to an unavailable state\");\n\t\t\n\t\t//setup values for the deposits mapping\n\t\tdeposits[_id].depositor = msg.sender;\n\t\tdeposits[_id].principal = _principal;\n\t\tdeposits[_id].starttime = now;\n\t\tdeposits[_id].endtime = deposits[_id].starttime + deposits[_id].timeperiod * 1 minutes;\n\t\tdeposits[_id].notRedeemed = true;\n\t\tdeposits[_id].isAvailable = false;\n\n\t\t//transfer the amounts from depositor to provider\n\t\taddress payable _provider = deposits[_id].provider;\n\t\tbalanceOf[msg.sender] -= _principal;\n\t\tbalanceOf[_provider] += _principal;\n\n\t\t//calculate interest and amount that will be later redeemed\n\t\tuint256 _ptr;\n\t\tuint256 _rate = deposits[_id].rate;\n\t\tuint256 _timeperiod = deposits[_id].timeperiod;\n\t\t_ptr = (_principal.mul(_rate)).mul(_timeperiod);\n\t\tdeposits[_id].interest = _ptr.div(100);\n\t\tdeposits[_id].amt = _principal.add(deposits[_id].interest);\n\n\t\treturn true;\n\n\t}\n\n\tfunction receiveBack(uint256 _id) public payable returns (bool success) {\n\t\t// basic requirements checks\n\t\trequire(now >= deposits[_id].endtime, \"Redemption time has not reached.\");\n\t\trequire(msg.sender == deposits[_id].depositor, \"Call back is only allowed from depositor.\");\n\t\trequire(deposits[_id].notRedeemed == true, \"Redemption should not have been made yet.\");\n\n\t\t//retrive amount and provider from deposits\n\t\tuint256 _amount = deposits[_id].amt;\n\t\taddress payable _provider = deposits[_id].provider;\n\t\tbalanceOf[msg.sender] += _amount;\n\t\tbalanceOf[_provider] -= _amount;\n\n\t\t//update notRedeemed flag\n\t\tdeposits[_id].notRedeemed = false;\n\n\t\treturn true;\n\t}\n}",
  "sourcePath": "/home/sajan/bokcoin/contracts/BOKCoin.sol",
  "compiler": {
    "name": "solc",
    "version": "0.5.16+commit.9c3226ce.Emscripten.clang"
  },
  "schemaVersion": "3.0.22",
  "updatedAt": "2020-06-11T04:41:52.783Z",
  "devdoc": {
    "methods": {}
  },
  "userdoc": {
    "methods": {}
  }
}