{
  "contractName": "SimpleInterest",
  "abi": [
    {
      "inputs": [],
      "payable": false,
      "stateMutability": "nonpayable",
      "type": "constructor"
    },
    {
      "constant": true,
      "inputs": [],
      "name": "amt",
      "outputs": [
        {
          "internalType": "uint256",
          "name": "",
          "type": "uint256"
        }
      ],
      "payable": false,
      "stateMutability": "view",
      "type": "function"
    },
    {
      "constant": true,
      "inputs": [],
      "name": "bank",
      "outputs": [
        {
          "internalType": "address payable",
          "name": "",
          "type": "address"
        }
      ],
      "payable": false,
      "stateMutability": "view",
      "type": "function"
    },
    {
      "constant": true,
      "inputs": [],
      "name": "depositor",
      "outputs": [
        {
          "internalType": "address payable",
          "name": "",
          "type": "address"
        }
      ],
      "payable": false,
      "stateMutability": "view",
      "type": "function"
    },
    {
      "constant": true,
      "inputs": [],
      "name": "endtime",
      "outputs": [
        {
          "internalType": "uint256",
          "name": "",
          "type": "uint256"
        }
      ],
      "payable": false,
      "stateMutability": "view",
      "type": "function"
    },
    {
      "constant": true,
      "inputs": [],
      "name": "interest",
      "outputs": [
        {
          "internalType": "uint256",
          "name": "",
          "type": "uint256"
        }
      ],
      "payable": false,
      "stateMutability": "view",
      "type": "function"
    },
    {
      "constant": true,
      "inputs": [],
      "name": "isPaidBack",
      "outputs": [
        {
          "internalType": "bool",
          "name": "",
          "type": "bool"
        }
      ],
      "payable": false,
      "stateMutability": "view",
      "type": "function"
    },
    {
      "constant": true,
      "inputs": [],
      "name": "principal",
      "outputs": [
        {
          "internalType": "uint256",
          "name": "",
          "type": "uint256"
        }
      ],
      "payable": false,
      "stateMutability": "view",
      "type": "function"
    },
    {
      "constant": true,
      "inputs": [],
      "name": "rate",
      "outputs": [
        {
          "internalType": "uint256",
          "name": "",
          "type": "uint256"
        }
      ],
      "payable": false,
      "stateMutability": "view",
      "type": "function"
    },
    {
      "constant": true,
      "inputs": [],
      "name": "starttime",
      "outputs": [
        {
          "internalType": "uint256",
          "name": "",
          "type": "uint256"
        }
      ],
      "payable": false,
      "stateMutability": "view",
      "type": "function"
    },
    {
      "constant": true,
      "inputs": [],
      "name": "timeperiod",
      "outputs": [
        {
          "internalType": "uint256",
          "name": "",
          "type": "uint256"
        }
      ],
      "payable": false,
      "stateMutability": "view",
      "type": "function"
    },
    {
      "constant": false,
      "inputs": [
        {
          "internalType": "uint256",
          "name": "_rate",
          "type": "uint256"
        },
        {
          "internalType": "uint256",
          "name": "_timeperiod",
          "type": "uint256"
        }
      ],
      "name": "makeDeposit",
      "outputs": [
        {
          "internalType": "bool",
          "name": "success",
          "type": "bool"
        }
      ],
      "payable": true,
      "stateMutability": "payable",
      "type": "function"
    },
    {
      "constant": false,
      "inputs": [],
      "name": "receiveBack",
      "outputs": [
        {
          "internalType": "bool",
          "name": "success",
          "type": "bool"
        }
      ],
      "payable": true,
      "stateMutability": "payable",
      "type": "function"
    }
  ],
  "bytecode": "0x608060405234801561001057600080fd5b5030600160006101000a81548173ffffffffffffffffffffffffffffffffffffffff021916908373ffffffffffffffffffffffffffffffffffffffff160217905550610978806100616000396000f3fe6080604052600436106100a75760003560e01c80638866e5ab116100645780638866e5ab146102035780638da588971461022e578063ada479ba14610259578063ba5d30781461027b578063c392f766146102a6578063c7c4ff46146102d1576100a7565b806316eab96b146100ac5780632b848fff146100d75780632c4e722e146101065780632ca126f8146101315780633f0f40761461015c57806376cdb03b146101ac575b600080fd5b3480156100b857600080fd5b506100c1610328565b6040518082815260200191505060405180910390f35b3480156100e357600080fd5b506100ec61032e565b604051808215151515815260200191505060405180910390f35b34801561011257600080fd5b5061011b610341565b6040518082815260200191505060405180910390f35b34801561013d57600080fd5b50610146610347565b6040518082815260200191505060405180910390f35b6101926004803603604081101561017257600080fd5b81019080803590602001909291908035906020019092919050505061034d565b604051808215151515815260200191505060405180910390f35b3480156101b857600080fd5b506101c16103de565b604051808273ffffffffffffffffffffffffffffffffffffffff1673ffffffffffffffffffffffffffffffffffffffff16815260200191505060405180910390f35b34801561020f57600080fd5b50610218610404565b6040518082815260200191505060405180910390f35b34801561023a57600080fd5b5061024361040a565b6040518082815260200191505060405180910390f35b610261610410565b604051808215151515815260200191505060405180910390f35b34801561028757600080fd5b506102906106ab565b6040518082815260200191505060405180910390f35b3480156102b257600080fd5b506102bb6106b1565b6040518082815260200191505060405180910390f35b3480156102dd57600080fd5b506102e66106b7565b604051808273ffffffffffffffffffffffffffffffffffffffff1673ffffffffffffffffffffffffffffffffffffffff16815260200191505060405180910390f35b60085481565b600960009054906101000a900460ff1681565b60025481565b60055481565b600034600481905550826002819055508160038190555042600681905550603c600354024201600581905550336000806101000a81548173ffffffffffffffffffffffffffffffffffffffff021916908373ffffffffffffffffffffffffffffffffffffffff1602179055506000600960006101000a81548160ff0219169083151502179055506001905092915050565b600160009054906101000a900473ffffffffffffffffffffffffffffffffffffffff1681565b60035481565b60065481565b600060055442101561048a576040517f08c379a00000000000000000000000000000000000000000000000000000000081526004018080602001828103825260208152602001807f526564656d7074696f6e2074696d6520686173206e6f7420726561636865642e81525060200191505060405180910390fd5b6000809054906101000a900473ffffffffffffffffffffffffffffffffffffffff1673ffffffffffffffffffffffffffffffffffffffff163373ffffffffffffffffffffffffffffffffffffffff161461052f576040517f08c379a00000000000000000000000000000000000000000000000000000000081526004018080602001828103825260288152602001806108fb6028913960400191505060405180910390fd5b60001515600960009054906101000a900460ff161515146105b8576040517f08c379a00000000000000000000000000000000000000000000000000000000081526004018080602001828103825260178152602001807f416d6f756e74206d757374206e6f74206265207061696400000000000000000081525060200191505060405180910390fd5b60006105e56003546105d76002546004546106dc90919063ffffffff16565b6106dc90919063ffffffff16565b90506105fb60648261076290919063ffffffff16565b6007819055506106186007546004546107ac90919063ffffffff16565b6008819055506000809054906101000a900473ffffffffffffffffffffffffffffffffffffffff1673ffffffffffffffffffffffffffffffffffffffff166108fc6008549081150290604051600060405180830381858888f19350505050158015610687573d6000803e3d6000fd5b506001600960006101000a81548160ff021916908315150217905550600191505090565b60045481565b60075481565b6000809054906101000a900473ffffffffffffffffffffffffffffffffffffffff1681565b6000808314156106ef576000905061075c565b600082840290508284828161070057fe5b0414610757576040517f08c379a00000000000000000000000000000000000000000000000000000000081526004018080602001828103825260218152602001806109236021913960400191505060405180910390fd5b809150505b92915050565b60006107a483836040518060400160405280601a81526020017f536166654d6174683a206469766973696f6e206279207a65726f000000000000815250610834565b905092915050565b60008082840190508381101561082a576040517f08c379a000000000000000000000000000000000000000000000000000000000815260040180806020018281038252601b8152602001807f536166654d6174683a206164646974696f6e206f766572666c6f77000000000081525060200191505060405180910390fd5b8091505092915050565b600080831182906108e0576040517f08c379a00000000000000000000000000000000000000000000000000000000081526004018080602001828103825283818151815260200191508051906020019080838360005b838110156108a557808201518184015260208101905061088a565b50505050905090810190601f1680156108d25780820380516001836020036101000a031916815260200191505b509250505060405180910390fd5b5060008385816108ec57fe5b04905080915050939250505056fe43616c6c206261636b206973206f6e6c7920616c6c6f7765642066726f6d206465706f7369746f72536166654d6174683a206d756c7469706c69636174696f6e206f766572666c6f77a265627a7a72315820ca236826c963af38b0e3db79813fe471ba6dcb882f4910104731a858bf805aa064736f6c63430005100032",
  "source": "pragma solidity >=0.4.21 <0.6.0;\nimport \"./SafeMath.sol\";\n\ncontract SimpleInterest {\n\tusing SafeMath for uint256;\n\taddress payable public depositor;\n\taddress payable public bank;\n\tuint256 public rate;\n\tuint256 public timeperiod;\n\tuint256 public principal;\n\tuint256 public endtime;\n\tuint256 public starttime;\n\tuint256 public interest;\n\tuint256 public amt;\n\tbool public isPaidBack;\n\n\tconstructor() public {\n\t\tbank = address(uint160(address(this)));\n\t}\n\n\tmodifier endTimeElapsed() {\n\t\trequire(now >= endtime, \"Redemption time has not reached.\");\n\t\t_;\n\t}\n\n\tmodifier callFromDepositor() {\n\t\trequire(msg.sender == depositor, \"Call back is only allowed from depositor\");\n\t\t_;\n\t}\n\n\tmodifier isActive() {\n\t\trequire(isPaidBack == false, \"Amount must not be paid\");\n\t\t_;\n\t}\n\n\tfunction makeDeposit(uint256 _rate, uint256 _timeperiod) public payable returns (bool success) {\n\t\tprincipal = msg.value;\n\t\trate = _rate;\n\t\ttimeperiod = _timeperiod;\n\t\tstarttime = now;\n\t\tendtime = now + timeperiod * 1 minutes;\n\t\tdepositor = msg.sender;\n\t\tisPaidBack = false;\n\t\treturn true;\n\t}\n\n\tfunction receiveBack() public payable endTimeElapsed callFromDepositor isActive returns (bool success) {\n\t\tuint256 _ptr;\n\t\t_ptr = (principal.mul(rate)).mul(timeperiod);\n\t\tinterest = _ptr.div(100);\n\t\tamt = principal.add(interest);\n\t\tdepositor.transfer(amt);\n\t\tisPaidBack = true;\n\t\treturn true;\n\t}\n}",
  "sourcePath": "/home/sajan/bokcoin/contracts/SimpleInterest.sol",
  "compiler": {
    "name": "solc",
    "version": "0.5.16+commit.9c3226ce.Emscripten.clang"
  },
  "schemaVersion": "3.0.22",
  "updatedAt": "2020-06-11T01:51:50.333Z",
  "devdoc": {
    "methods": {}
  },
  "userdoc": {
    "methods": {}
  }
}